{"abi":[{"type":"constructor","inputs":[{"name":"admin","type":"address","internalType":"address"},{"name":"identityRegistryAddr","type":"address","internalType":"address"}],"stateMutability":"nonpayable"},{"type":"function","name":"DEFAULT_ADMIN_ROLE","inputs":[],"outputs":[{"name":"","type":"bytes32","internalType":"bytes32"}],"stateMutability":"view"},{"type":"function","name":"REGULATOR_ROLE","inputs":[],"outputs":[{"name":"","type":"bytes32","internalType":"bytes32"}],"stateMutability":"view"},{"type":"function","name":"addModule","inputs":[{"name":"module","type":"address","internalType":"address"}],"outputs":[],"stateMutability":"nonpayable"},{"type":"function","name":"bindToken","inputs":[{"name":"_token","type":"address","internalType":"address"}],"outputs":[],"stateMutability":"nonpayable"},{"type":"function","name":"canCreate","inputs":[{"name":"to","type":"address","internalType":"address"},{"name":"amount","type":"uint256","internalType":"uint256"}],"outputs":[{"name":"","type":"bool","internalType":"bool"}],"stateMutability":"view"},{"type":"function","name":"canDestroy","inputs":[{"name":"from","type":"address","internalType":"address"},{"name":"amount","type":"uint256","internalType":"uint256"}],"outputs":[{"name":"","type":"bool","internalType":"bool"}],"stateMutability":"view"},{"type":"function","name":"created","inputs":[{"name":"","type":"address","internalType":"address"},{"name":"","type":"uint256","internalType":"uint256"}],"outputs":[],"stateMutability":"nonpayable"},{"type":"function","name":"destroyed","inputs":[{"name":"","type":"address","internalType":"address"},{"name":"","type":"uint256","internalType":"uint256"}],"outputs":[],"stateMutability":"nonpayable"},{"type":"function","name":"freezeInvestor","inputs":[{"name":"investor","type":"address","internalType":"address"},{"name":"reason","type":"string","internalType":"string"}],"outputs":[],"stateMutability":"nonpayable"},{"type":"function","name":"getModules","inputs":[],"outputs":[{"name":"","type":"address[]","internalType":"address[]"}],"stateMutability":"pure"},{"type":"function","name":"getRoleAdmin","inputs":[{"name":"role","type":"bytes32","internalType":"bytes32"}],"outputs":[{"name":"","type":"bytes32","internalType":"bytes32"}],"stateMutability":"view"},{"type":"function","name":"grantRole","inputs":[{"name":"role","type":"bytes32","internalType":"bytes32"},{"name":"account","type":"address","internalType":"address"}],"outputs":[],"stateMutability":"nonpayable"},{"type":"function","name":"hasRole","inputs":[{"name":"role","type":"bytes32","internalType":"bytes32"},{"name":"account","type":"address","internalType":"address"}],"outputs":[{"name":"","type":"bool","internalType":"bool"}],"stateMutability":"view"},{"type":"function","name":"identityRegistry","inputs":[],"outputs":[{"name":"","type":"address","internalType":"contract IIdentityRegistry"}],"stateMutability":"view"},{"type":"function","name":"isCompliant","inputs":[{"name":"from","type":"address","internalType":"address"},{"name":"to","type":"address","internalType":"address"},{"name":"amount","type":"uint256","internalType":"uint256"}],"outputs":[{"name":"","type":"bool","internalType":"bool"}],"stateMutability":"view"},{"type":"function","name":"isCountryRestricted","inputs":[{"name":"country","type":"uint16","internalType":"uint16"}],"outputs":[{"name":"","type":"bool","internalType":"bool"}],"stateMutability":"view"},{"type":"function","name":"isFrozen","inputs":[{"name":"investor","type":"address","internalType":"address"}],"outputs":[{"name":"","type":"bool","internalType":"bool"}],"stateMutability":"view"},{"type":"function","name":"isModuleBound","inputs":[{"name":"","type":"address","internalType":"address"}],"outputs":[{"name":"","type":"bool","internalType":"bool"}],"stateMutability":"pure"},{"type":"function","name":"isWhitelisted","inputs":[{"name":"account","type":"address","internalType":"address"}],"outputs":[{"name":"","type":"bool","internalType":"bool"}],"stateMutability":"view"},{"type":"function","name":"pause","inputs":[],"outputs":[],"stateMutability":"nonpayable"},{"type":"function","name":"paused","inputs":[],"outputs":[{"name":"","type":"bool","internalType":"bool"}],"stateMutability":"view"},{"type":"function","name":"removeModule","inputs":[{"name":"module","type":"address","internalType":"address"}],"outputs":[],"stateMutability":"nonpayable"},{"type":"function","name":"renounceRole","inputs":[{"name":"role","type":"bytes32","internalType":"bytes32"},{"name":"callerConfirmation","type":"address","internalType":"address"}],"outputs":[],"stateMutability":"nonpayable"},{"type":"function","name":"restrictCountry","inputs":[{"name":"country","type":"uint16","internalType":"uint16"}],"outputs":[],"stateMutability":"nonpayable"},{"type":"function","name":"revokeRole","inputs":[{"name":"role","type":"bytes32","internalType":"bytes32"},{"name":"account","type":"address","internalType":"address"}],"outputs":[],"stateMutability":"nonpayable"},{"type":"function","name":"setIdentityRegistry","inputs":[{"name":"registry","type":"address","internalType":"address"}],"outputs":[],"stateMutability":"nonpayable"},{"type":"function","name":"setWhitelistEnabled","inputs":[{"name":"enabled","type":"bool","internalType":"bool"}],"outputs":[],"stateMutability":"nonpayable"},{"type":"function","name":"setWhitelisted","inputs":[{"name":"account","type":"address","internalType":"address"},{"name":"status","type":"bool","internalType":"bool"}],"outputs":[],"stateMutability":"nonpayable"},{"type":"function","name":"supportsInterface","inputs":[{"name":"interfaceId","type":"bytes4","internalType":"bytes4"}],"outputs":[{"name":"","type":"bool","internalType":"bool"}],"stateMutability":"view"},{"type":"function","name":"token","inputs":[],"outputs":[{"name":"","type":"address","internalType":"address"}],"stateMutability":"view"},{"type":"function","name":"transferred","inputs":[{"name":"","type":"address","internalType":"address"},{"name":"","type":"address","internalType":"address"},{"name":"","type":"uint256","internalType":"uint256"}],"outputs":[],"stateMutability":"nonpayable"},{"type":"function","name":"unbindToken","inputs":[{"name":"_token","type":"address","internalType":"address"}],"outputs":[],"stateMutability":"nonpayable"},{"type":"function","name":"unfreezeInvestor","inputs":[{"name":"investor","type":"address","internalType":"address"}],"outputs":[],"stateMutability":"nonpayable"},{"type":"function","name":"unpause","inputs":[],"outputs":[],"stateMutability":"nonpayable"},{"type":"function","name":"unrestrictCountry","inputs":[{"name":"country","type":"uint16","internalType":"uint16"}],"outputs":[],"stateMutability":"nonpayable"},{"type":"function","name":"whitelistEnabled","inputs":[],"outputs":[{"name":"","type":"bool","internalType":"bool"}],"stateMutability":"view"},{"type":"event","name":"CountryRestricted","inputs":[{"name":"country","type":"uint16","indexed":true,"internalType":"uint16"},{"name":"timestamp","type":"uint256","indexed":false,"internalType":"uint256"},{"name":"actor","type":"address","indexed":true,"internalType":"address"}],"anonymous":false},{"type":"event","name":"CountryUnrestricted","inputs":[{"name":"country","type":"uint16","indexed":true,"internalType":"uint16"},{"name":"timestamp","type":"uint256","indexed":false,"internalType":"uint256"},{"name":"actor","type":"address","indexed":true,"internalType":"address"}],"anonymous":false},{"type":"event","name":"IdentityRegistrySet","inputs":[{"name":"registry","type":"address","indexed":true,"internalType":"address"}],"anonymous":false},{"type":"event","name":"InvestorFrozen","inputs":[{"name":"investor","type":"address","indexed":true,"internalType":"address"},{"name":"reason","type":"string","indexed":false,"internalType":"string"},{"name":"timestamp","type":"uint256","indexed":false,"internalType":"uint256"},{"name":"actor","type":"address","indexed":true,"internalType":"address"}],"anonymous":false},{"type":"event","name":"InvestorUnfrozen","inputs":[{"name":"investor","type":"address","indexed":true,"internalType":"address"},{"name":"timestamp","type":"uint256","indexed":false,"internalType":"uint256"},{"name":"actor","type":"address","indexed":true,"internalType":"address"}],"anonymous":false},{"type":"event","name":"ModuleAdded","inputs":[{"name":"module","type":"address","indexed":true,"internalType":"address"}],"anonymous":false},{"type":"event","name":"ModuleRemoved","inputs":[{"name":"module","type":"address","indexed":true,"internalType":"address"}],"anonymous":false},{"type":"event","name":"Paused","inputs":[{"name":"account","type":"address","indexed":false,"internalType":"address"}],"anonymous":false},{"type":"event","name":"RoleAdminChanged","inputs":[{"name":"role","type":"bytes32","indexed":true,"internalType":"bytes32"},{"name":"previousAdminRole","type":"bytes32","indexed":true,"internalType":"bytes32"},{"name":"newAdminRole","type":"bytes32","indexed":true,"internalType":"bytes32"}],"anonymous":false},{"type":"event","name":"RoleGranted","inputs":[{"name":"role","type":"bytes32","indexed":true,"internalType":"bytes32"},{"name":"account","type":"address","indexed":true,"internalType":"address"},{"name":"sender","type":"address","indexed":true,"internalType":"address"}],"anonymous":false},{"type":"event","name":"RoleRevoked","inputs":[{"name":"role","type":"bytes32","indexed":true,"internalType":"bytes32"},{"name":"account","type":"address","indexed":true,"internalType":"address"},{"name":"sender","type":"address","indexed":true,"internalType":"address"}],"anonymous":false},{"type":"event","name":"TokenBound","inputs":[{"name":"token","type":"address","indexed":true,"internalType":"address"}],"anonymous":false},{"type":"event","name":"TokenUnbound","inputs":[{"name":"token","type":"address","indexed":true,"internalType":"address"}],"anonymous":false},{"type":"event","name":"Unpaused","inputs":[{"name":"account","type":"address","indexed":false,"internalType":"address"}],"anonymous":false},{"type":"event","name":"WhitelistEnabled","inputs":[{"name":"enabled","type":"bool","indexed":false,"internalType":"bool"},{"name":"timestamp","type":"uint256","indexed":false,"internalType":"uint256"},{"name":"actor","type":"address","indexed":true,"internalType":"address"}],"anonymous":false},{"type":"event","name":"WhitelistUpdated","inputs":[{"name":"account","type":"address","indexed":true,"internalType":"address"},{"name":"status","type":"bool","indexed":false,"internalType":"bool"},{"name":"actor","type":"address","indexed":true,"internalType":"address"}],"anonymous":false},{"type":"error","name":"AccessControlBadConfirmation","inputs":[]},{"type":"error","name":"AccessControlUnauthorizedAccount","inputs":[{"name":"account","type":"address","internalType":"address"},{"name":"neededRole","type":"bytes32","internalType":"bytes32"}]},{"type":"error","name":"ComplianceEngine__TokenMismatch","inputs":[]},{"type":"error","name":"ComplianceEngine__ZeroAddress","inputs":[]},{"type":"error","name":"EnforcedPause","inputs":[]},{"type":"error","name":"ExpectedPause","inputs":[]}],"bytecode":{"object":"0x608060405234801561000f575f5ffd5b5060405161153c38038061153c83398101604081905261002e916101a2565b816001600160a01b038116610056576040516302f668d160e51b815260040160405180910390fd5b816001600160a01b03811661007e576040516302f668d160e51b815260040160405180910390fd5b6100885f856100de565b506100b37f20b5f7ac978e5d6199de06401411960dfa81d2f762655f6206bdc61d46fc19e6856100de565b5050600280546001600160a01b0319166001600160a01b039390931692909217909155506101d39050565b5f828152602081815260408083206001600160a01b038516845290915281205460ff1661017e575f838152602081815260408083206001600160a01b03861684529091529020805460ff191660011790556101363390565b6001600160a01b0316826001600160a01b0316847f2f8788117e7eff1d82e926ec794901d17c78024a50270940304540a733656f0d60405160405180910390a4506001610181565b505f5b92915050565b80516001600160a01b038116811461019d575f5ffd5b919050565b5f5f604083850312156101b3575f5ffd5b6101bc83610187565b91506101ca60208401610187565b90509250929050565b61135c806101e05f395ff3fe608060405234801561000f575f5ffd5b5060043610610213575f3560e01c806374aedd121161011f578063a33f5c9f116100a9578063cbf3f86111610079578063cbf3f8611461049d578063d547741f146104b0578063e5839836146104c3578063eb697611146104ee578063fc0c546a14610501575f5ffd5b8063a33f5c9f14610439578063a446d49f1461044c578063b2494df31461045f578063bc4c855214610477575f5ffd5b806391d14854116100ef57806391d14854146103e65780639281aa0b146103f957806394daa6581461040c578063a06324611461041f578063a217fddf14610432575f5ffd5b806374aedd12146103b85780638456cb59146103cb5780638baf29b4146103d35780638d2ea772146103a6575f5ffd5b80633af32abf116101a05780634670dffe116101705780634670dffe1461036857806351fb012d1461037b578063594b49a8146103885780635c975abb1461039b5780635f8dead3146103a6575f5ffd5b80633af32abf1461030f5780633f4ba83a1461033a5780633ff5aa021461034257806340db3b5014610355575f5ffd5b80631a6e3f6e116101e65780631a6e3f6e146102a15780631ed86f19146102b4578063248a9ca3146102c75780632f2ff15d146102e957806336568abe146102fc575f5ffd5b806301ffc9a714610217578063052d9e7e1461023f578063134e18f414610254578063144bf5891461027f575b5f5ffd5b61022a61022536600461104b565b610519565b60405190151581526020015b60405180910390f35b61025261024d36600461107f565b61054f565b005b600254610267906001600160a01b031681565b6040516001600160a01b039091168152602001610236565b6102935f5160206113075f395f51905f5281565b604051908152602001610236565b61022a6102af3660046110b5565b6105a8565b6102526102c23660046110dd565b6105bb565b6102936102d53660046110f6565b5f9081526020819052604090206001015490565b6102526102f736600461110d565b6105fc565b61025261030a36600461110d565b610626565b61022a61031d3660046110dd565b6001600160a01b03165f9081526005602052604090205460ff1690565b610252610659565b6102526103503660046110dd565b61066e565b6102526103633660046110dd565b6106f3565b610252610376366004611146565b610778565b60065461022a9060ff1681565b610252610396366004611146565b6107ea565b60015460ff1661022a565b6102526103b43660046110b5565b5050565b61022a6103c6366004611161565b610853565b610252610867565b6102526103e1366004611161565b505050565b61022a6103f436600461110d565b610879565b61025261040736600461119b565b6108a1565b61025261041a3660046110dd565b61091a565b61025261042d3660046110dd565b610985565b6102935f81565b6102526104473660046111d0565b6109c6565b61022a61045a3660046110dd565b505f90565b604080515f815260208101918290526102369161124e565b61022a610485366004611146565b61ffff165f9081526004602052604090205460ff1690565b6102526104ab3660046110dd565b610a44565b6102526104be36600461110d565b610ac1565b61022a6104d13660046110dd565b6001600160a01b03165f9081526003602052604090205460ff1690565b61022a6104fc3660046110b5565b610ae5565b6001546102679061010090046001600160a01b031681565b5f6001600160e01b03198216637965db0b60e01b148061054957506301ffc9a760e01b6001600160e01b03198316145b92915050565b5f61055981610af1565b6006805460ff19168315159081179091556040805191825242602083015233917f54a2bc6a4dcc072ad09f545c2169a90b6c0f16c2659a6ad6eb177ace22da4060910160405180910390a25050565b5f6105b4835f84610afb565b9392505050565b5f6105c581610af1565b6040516001600160a01b038316907fead6a006345da1073a106d5f32372d2d2204f46cb0b4bca8f5ebafcbbed12b8a905f90a25050565b5f8281526020819052604090206001015461061681610af1565b6106208383610e40565b50505050565b6001600160a01b038116331461064f5760405163334bd91960e11b815260040160405180910390fd5b6103e18282610ecf565b5f61066381610af1565b61066b610f38565b50565b5f61067881610af1565b816001600160a01b0381166106a0576040516302f668d160e51b815260040160405180910390fd5b60018054610100600160a81b0319166101006001600160a01b038616908102919091179091556040517f2de35142b19ed5a07796cf30791959c592018f70b1d2d7c460eef8ffe713692b905f90a2505050565b5f6106fd81610af1565b6001546001600160a01b0383811661010090920416146107305760405163e82c42a960e01b815260040160405180910390fd5b60018054610100600160a81b03191690556040516001600160a01b038316907f28a4ca7134a3b3f9aff286e79ad3daadb4a06d1b43d037a3a98bdc074edd9b7a905f90a25050565b5f5160206113075f395f51905f5261078f81610af1565b61ffff82165f8181526004602052604090819020805460ff19169055513391907f0b5bc6409a383d61c4b16a52cb80b4f9ec4d104cdd0bf44993a8b26bab7eb6a4906107de9042815260200190565b60405180910390a35050565b5f5160206113075f395f51905f5261080181610af1565b61ffff82165f8181526004602052604090819020805460ff19166001179055513391907f351a2b5d39137e62395238bc80965a31231300d9dd0f1cc9e8b4819b50586d37906107de9042815260200190565b5f61085f848484610afb565b949350505050565b5f61087181610af1565b61066b610f8a565b5f918252602082815260408084206001600160a01b0393909316845291905290205460ff1690565b5f5160206113075f395f51905f526108b881610af1565b6001600160a01b0383165f81815260056020908152604091829020805460ff191686151590811790915591519182523392917f0daf0507017b7c168d50508ec65e8ea74607d268349dad62c5de525f6864b757910160405180910390a3505050565b5f5160206113075f395f51905f5261093181610af1565b6001600160a01b0382165f8181526003602052604090819020805460ff19169055513391907faffa0689ce60b24a9731c526ea6b13b6a22b768c69c39c5de2dd6e6626de0ebc906107de9042815260200190565b5f61098f81610af1565b6040516001600160a01b038316907f0a1ee69f55c33d8467c69ca59ce2007a737a88603d75392972520bf67cb513b8905f90a25050565b5f5160206113075f395f51905f526109dd81610af1565b6001600160a01b0384165f8181526003602052604090819020805460ff19166001179055513391907f212f70cf9d119076483e8749cb36880e86dc23c8fdb7080820dc00c683b9fddc90610a3690879087904290611299565b60405180910390a350505050565b5f610a4e81610af1565b816001600160a01b038116610a76576040516302f668d160e51b815260040160405180910390fd5b600280546001600160a01b0319166001600160a01b0385169081179091556040517f8aa6172b9dcbe4f05892121059bc535d4743d706ba3ac6cbabf4a40de229e388905f90a2505050565b5f82815260208190526040902060010154610adb81610af1565b6106208383610ecf565b5f6105b45f8484610afb565b61066b8133610fc5565b5f610b0860015460ff1690565b15610b1457505f6105b4565b6001600160a01b03841615801590610b95575060025460405163b9209e3360e01b81526001600160a01b0386811660048301529091169063b9209e3390602401602060405180830381865afa158015610b6f573d5f5f3e3d5ffd5b505050506040513d601f19601f82011682018060405250810190610b9391906112d0565b155b15610ba157505f6105b4565b6001600160a01b03831615801590610c22575060025460405163b9209e3360e01b81526001600160a01b0385811660048301529091169063b9209e3390602401602060405180830381865afa158015610bfc573d5f5f3e3d5ffd5b505050506040513d601f19601f82011682018060405250810190610c2091906112d0565b155b15610c2e57505f6105b4565b6001600160a01b03841615801590610c5d57506001600160a01b0384165f9081526003602052604090205460ff165b15610c6957505f6105b4565b6001600160a01b03831615801590610c9857506001600160a01b0383165f9081526003602052604090205460ff165b15610ca457505f6105b4565b6001600160a01b03841615610d4857600254604051637e42683b60e01b81526001600160a01b0386811660048301525f921690637e42683b90602401602060405180830381865afa158015610cfb573d5f5f3e3d5ffd5b505050506040513d601f19601f82011682018060405250810190610d1f91906112eb565b61ffff81165f9081526004602052604090205490915060ff1615610d46575f9150506105b4565b505b6001600160a01b03831615610dec57600254604051637e42683b60e01b81526001600160a01b0385811660048301525f921690637e42683b90602401602060405180830381865afa158015610d9f573d5f5f3e3d5ffd5b505050506040513d601f19601f82011682018060405250810190610dc391906112eb565b61ffff81165f9081526004602052604090205490915060ff1615610dea575f9150506105b4565b505b6001600160a01b03831615801590610e06575060065460ff165b8015610e2a57506001600160a01b0383165f9081526005602052604090205460ff16155b15610e3657505f6105b4565b5060019392505050565b5f610e4b8383610879565b610ec8575f838152602081815260408083206001600160a01b03861684529091529020805460ff19166001179055610e803390565b6001600160a01b0316826001600160a01b0316847f2f8788117e7eff1d82e926ec794901d17c78024a50270940304540a733656f0d60405160405180910390a4506001610549565b505f610549565b5f610eda8383610879565b15610ec8575f838152602081815260408083206001600160a01b0386168085529252808320805460ff1916905551339286917ff6391f5c32d9c69d2a47ea670b442974b53935d1edc7fd64eb21e047a839171b9190a4506001610549565b610f40611002565b6001805460ff191690557f5db9ee0a495bf2e6ff9c91a7834c1ba4fdd244a5e8aa4e537bd38aeae4b073aa335b6040516001600160a01b03909116815260200160405180910390a1565b610f92611027565b6001805460ff1916811790557f62e78cea01bee320cd4e420270b5ea74000d11b0c9f74754ebdbfc544b05a25833610f6d565b610fcf8282610879565b6103b45760405163e2517d3f60e01b81526001600160a01b03821660048201526024810183905260440160405180910390fd5b60015460ff1661102557604051638dfc202b60e01b815260040160405180910390fd5b565b60015460ff16156110255760405163d93c066560e01b815260040160405180910390fd5b5f6020828403121561105b575f5ffd5b81356001600160e01b0319811681146105b4575f5ffd5b801515811461066b575f5ffd5b5f6020828403121561108f575f5ffd5b81356105b481611072565b80356001600160a01b03811681146110b0575f5ffd5b919050565b5f5f604083850312156110c6575f5ffd5b6110cf8361109a565b946020939093013593505050565b5f602082840312156110ed575f5ffd5b6105b48261109a565b5f60208284031215611106575f5ffd5b5035919050565b5f5f6040838503121561111e575f5ffd5b8235915061112e6020840161109a565b90509250929050565b61ffff8116811461066b575f5ffd5b5f60208284031215611156575f5ffd5b81356105b481611137565b5f5f5f60608486031215611173575f5ffd5b61117c8461109a565b925061118a6020850161109a565b929592945050506040919091013590565b5f5f604083850312156111ac575f5ffd5b6111b58361109a565b915060208301356111c581611072565b809150509250929050565b5f5f5f604084860312156111e2575f5ffd5b6111eb8461109a565b9250602084013567ffffffffffffffff811115611206575f5ffd5b8401601f81018613611216575f5ffd5b803567ffffffffffffffff81111561122c575f5ffd5b86602082840101111561123d575f5ffd5b939660209190910195509293505050565b602080825282518282018190525f918401906040840190835b8181101561128e5783516001600160a01b0316835260209384019390920191600101611267565b509095945050505050565b60408152826040820152828460608301375f606084830101525f6060601f19601f8601168301019050826020830152949350505050565b5f602082840312156112e0575f5ffd5b81516105b481611072565b5f602082840312156112fb575f5ffd5b81516105b48161113756fe20b5f7ac978e5d6199de06401411960dfa81d2f762655f6206bdc61d46fc19e6a2646970667358221220bd3b1287eb92c94742cd9cd6ee9d78f45be3512fcd7a384628f5144891a99f0964736f6c634300081c0033","linkReferences":{}},"methodIdentifiers":{"DEFAULT_ADMIN_ROLE()":"a217fddf","REGULATOR_ROLE()":"144bf589","addModule(address)":"1ed86f19","bindToken(address)":"3ff5aa02","canCreate(address,uint256)":"eb697611","canDestroy(address,uint256)":"1a6e3f6e","created(address,uint256)":"5f8dead3","destroyed(address,uint256)":"8d2ea772","freezeInvestor(address,string)":"a33f5c9f","getModules()":"b2494df3","getRoleAdmin(bytes32)":"248a9ca3","grantRole(bytes32,address)":"2f2ff15d","hasRole(bytes32,address)":"91d14854","identityRegistry()":"134e18f4","isCompliant(address,address,uint256)":"74aedd12","isCountryRestricted(uint16)":"bc4c8552","isFrozen(address)":"e5839836","isModuleBound(address)":"a446d49f","isWhitelisted(address)":"3af32abf","pause()":"8456cb59","paused()":"5c975abb","removeModule(address)":"a0632461","renounceRole(bytes32,address)":"36568abe","restrictCountry(uint16)":"594b49a8","revokeRole(bytes32,address)":"d547741f","setIdentityRegistry(address)":"cbf3f861","setWhitelistEnabled(bool)":"052d9e7e","setWhitelisted(address,bool)":"9281aa0b","supportsInterface(bytes4)":"01ffc9a7","token()":"fc0c546a","transferred(address,address,uint256)":"8baf29b4","unbindToken(address)":"40db3b50","unfreezeInvestor(address)":"94daa658","unpause()":"3f4ba83a","unrestrictCountry(uint16)":"4670dffe","whitelistEnabled()":"51fb012d"},"id":50}