{"abi":[{"type":"constructor","inputs":[{"name":"_stablecoin","type":"address","internalType":"address"},{"name":"_identityRegistry","type":"address","internalType":"address"},{"name":"_complianceEngine","type":"address","internalType":"address"},{"name":"_name","type":"string","internalType":"string"},{"name":"_symbol","type":"string","internalType":"string"},{"name":"_admin","type":"address","internalType":"address"}],"stateMutability":"nonpayable"},{"type":"function","name":"DEFAULT_ADMIN_ROLE","inputs":[],"outputs":[{"name":"","type":"bytes32","internalType":"bytes32"}],"stateMutability":"view"},{"type":"function","name":"ISSUER_ROLE","inputs":[],"outputs":[{"name":"","type":"bytes32","internalType":"bytes32"}],"stateMutability":"view"},{"type":"function","name":"MAX_SUPPLY","inputs":[],"outputs":[{"name":"","type":"uint256","internalType":"uint256"}],"stateMutability":"view"},{"type":"function","name":"REGULATOR_ROLE","inputs":[],"outputs":[{"name":"","type":"bytes32","internalType":"bytes32"}],"stateMutability":"view"},{"type":"function","name":"allowance","inputs":[{"name":"owner","type":"address","internalType":"address"},{"name":"spender","type":"address","internalType":"address"}],"outputs":[{"name":"","type":"uint256","internalType":"uint256"}],"stateMutability":"view"},{"type":"function","name":"approve","inputs":[{"name":"spender","type":"address","internalType":"address"},{"name":"value","type":"uint256","internalType":"uint256"}],"outputs":[{"name":"","type":"bool","internalType":"bool"}],"stateMutability":"nonpayable"},{"type":"function","name":"balanceOf","inputs":[{"name":"account","type":"address","internalType":"address"}],"outputs":[{"name":"","type":"uint256","internalType":"uint256"}],"stateMutability":"view"},{"type":"function","name":"batchMint","inputs":[{"name":"recipients","type":"address[]","internalType":"address[]"},{"name":"amounts","type":"uint256[]","internalType":"uint256[]"}],"outputs":[],"stateMutability":"nonpayable"},{"type":"function","name":"burn","inputs":[{"name":"amount","type":"uint256","internalType":"uint256"}],"outputs":[],"stateMutability":"nonpayable"},{"type":"function","name":"claimDividends","inputs":[],"outputs":[],"stateMutability":"nonpayable"},{"type":"function","name":"complianceEngine","inputs":[],"outputs":[{"name":"","type":"address","internalType":"contract IComplianceEngine"}],"stateMutability":"view"},{"type":"function","name":"decimals","inputs":[],"outputs":[{"name":"","type":"uint8","internalType":"uint8"}],"stateMutability":"view"},{"type":"function","name":"distributeDividends","inputs":[{"name":"amount","type":"uint256","internalType":"uint256"}],"outputs":[],"stateMutability":"nonpayable"},{"type":"function","name":"dividendPerToken","inputs":[],"outputs":[{"name":"","type":"uint256","internalType":"uint256"}],"stateMutability":"view"},{"type":"function","name":"dust","inputs":[],"outputs":[{"name":"","type":"uint256","internalType":"uint256"}],"stateMutability":"view"},{"type":"function","name":"forcedBurn","inputs":[{"name":"from","type":"address","internalType":"address"},{"name":"amount","type":"uint256","internalType":"uint256"},{"name":"reason","type":"string","internalType":"string"}],"outputs":[],"stateMutability":"nonpayable"},{"type":"function","name":"forcedTransfer","inputs":[{"name":"from","type":"address","internalType":"address"},{"name":"to","type":"address","internalType":"address"},{"name":"amount","type":"uint256","internalType":"uint256"},{"name":"reason","type":"string","internalType":"string"}],"outputs":[],"stateMutability":"nonpayable"},{"type":"function","name":"getClaimableDividends","inputs":[{"name":"account","type":"address","internalType":"address"}],"outputs":[{"name":"","type":"uint256","internalType":"uint256"}],"stateMutability":"view"},{"type":"function","name":"getRoleAdmin","inputs":[{"name":"role","type":"bytes32","internalType":"bytes32"}],"outputs":[{"name":"","type":"bytes32","internalType":"bytes32"}],"stateMutability":"view"},{"type":"function","name":"grantRole","inputs":[{"name":"role","type":"bytes32","internalType":"bytes32"},{"name":"account","type":"address","internalType":"address"}],"outputs":[],"stateMutability":"nonpayable"},{"type":"function","name":"hasRole","inputs":[{"name":"role","type":"bytes32","internalType":"bytes32"},{"name":"account","type":"address","internalType":"address"}],"outputs":[{"name":"","type":"bool","internalType":"bool"}],"stateMutability":"view"},{"type":"function","name":"identityRegistry","inputs":[],"outputs":[{"name":"","type":"address","internalType":"contract IIdentityRegistry"}],"stateMutability":"view"},{"type":"function","name":"lastClaimed","inputs":[{"name":"","type":"address","internalType":"address"}],"outputs":[{"name":"","type":"uint256","internalType":"uint256"}],"stateMutability":"view"},{"type":"function","name":"mint","inputs":[{"name":"to","type":"address","internalType":"address"},{"name":"amount","type":"uint256","internalType":"uint256"}],"outputs":[],"stateMutability":"nonpayable"},{"type":"function","name":"name","inputs":[],"outputs":[{"name":"","type":"string","internalType":"string"}],"stateMutability":"view"},{"type":"function","name":"pause","inputs":[],"outputs":[],"stateMutability":"nonpayable"},{"type":"function","name":"paused","inputs":[],"outputs":[{"name":"","type":"bool","internalType":"bool"}],"stateMutability":"view"},{"type":"function","name":"pendingDividends","inputs":[{"name":"","type":"address","internalType":"address"}],"outputs":[{"name":"","type":"uint256","internalType":"uint256"}],"stateMutability":"view"},{"type":"function","name":"renounceRole","inputs":[{"name":"role","type":"bytes32","internalType":"bytes32"},{"name":"callerConfirmation","type":"address","internalType":"address"}],"outputs":[],"stateMutability":"nonpayable"},{"type":"function","name":"revokeRole","inputs":[{"name":"role","type":"bytes32","internalType":"bytes32"},{"name":"account","type":"address","internalType":"address"}],"outputs":[],"stateMutability":"nonpayable"},{"type":"function","name":"setComplianceEngine","inputs":[{"name":"_engine","type":"address","internalType":"address"}],"outputs":[],"stateMutability":"nonpayable"},{"type":"function","name":"setIdentityRegistry","inputs":[{"name":"_registry","type":"address","internalType":"address"}],"outputs":[],"stateMutability":"nonpayable"},{"type":"function","name":"stablecoin","inputs":[],"outputs":[{"name":"","type":"address","internalType":"contract IERC20"}],"stateMutability":"view"},{"type":"function","name":"supportsInterface","inputs":[{"name":"interfaceId","type":"bytes4","internalType":"bytes4"}],"outputs":[{"name":"","type":"bool","internalType":"bool"}],"stateMutability":"view"},{"type":"function","name":"sweepDust","inputs":[],"outputs":[],"stateMutability":"nonpayable"},{"type":"function","name":"symbol","inputs":[],"outputs":[{"name":"","type":"string","internalType":"string"}],"stateMutability":"view"},{"type":"function","name":"totalPendingDividends","inputs":[],"outputs":[{"name":"","type":"uint256","internalType":"uint256"}],"stateMutability":"view"},{"type":"function","name":"totalSupply","inputs":[],"outputs":[{"name":"","type":"uint256","internalType":"uint256"}],"stateMutability":"view"},{"type":"function","name":"transfer","inputs":[{"name":"to","type":"address","internalType":"address"},{"name":"value","type":"uint256","internalType":"uint256"}],"outputs":[{"name":"","type":"bool","internalType":"bool"}],"stateMutability":"nonpayable"},{"type":"function","name":"transferFrom","inputs":[{"name":"from","type":"address","internalType":"address"},{"name":"to","type":"address","internalType":"address"},{"name":"value","type":"uint256","internalType":"uint256"}],"outputs":[{"name":"","type":"bool","internalType":"bool"}],"stateMutability":"nonpayable"},{"type":"function","name":"unpause","inputs":[],"outputs":[],"stateMutability":"nonpayable"},{"type":"event","name":"Approval","inputs":[{"name":"owner","type":"address","indexed":true,"internalType":"address"},{"name":"spender","type":"address","indexed":true,"internalType":"address"},{"name":"value","type":"uint256","indexed":false,"internalType":"uint256"}],"anonymous":false},{"type":"event","name":"ComplianceEngineSet","inputs":[{"name":"oldEngine","type":"address","indexed":true,"internalType":"address"},{"name":"newEngine","type":"address","indexed":true,"internalType":"address"},{"name":"actor","type":"address","indexed":true,"internalType":"address"}],"anonymous":false},{"type":"event","name":"DividendClaimed","inputs":[{"name":"by","type":"address","indexed":true,"internalType":"address"},{"name":"amount","type":"uint256","indexed":false,"internalType":"uint256"}],"anonymous":false},{"type":"event","name":"DividendSynced","inputs":[{"name":"investor","type":"address","indexed":true,"internalType":"address"},{"name":"amount","type":"uint256","indexed":false,"internalType":"uint256"}],"anonymous":false},{"type":"event","name":"DividendsDistributed","inputs":[{"name":"amount","type":"uint256","indexed":false,"internalType":"uint256"},{"name":"newDividendPerToken","type":"uint256","indexed":false,"internalType":"uint256"},{"name":"totalDividendPerToken","type":"uint256","indexed":false,"internalType":"uint256"},{"name":"actor","type":"address","indexed":true,"internalType":"address"}],"anonymous":false},{"type":"event","name":"ForcedBurn","inputs":[{"name":"from","type":"address","indexed":true,"internalType":"address"},{"name":"amount","type":"uint256","indexed":false,"internalType":"uint256"},{"name":"reason","type":"string","indexed":false,"internalType":"string"},{"name":"actor","type":"address","indexed":true,"internalType":"address"}],"anonymous":false},{"type":"event","name":"ForcedTransfer","inputs":[{"name":"from","type":"address","indexed":true,"internalType":"address"},{"name":"to","type":"address","indexed":true,"internalType":"address"},{"name":"amount","type":"uint256","indexed":false,"internalType":"uint256"},{"name":"reason","type":"string","indexed":false,"internalType":"string"},{"name":"actor","type":"address","indexed":true,"internalType":"address"}],"anonymous":false},{"type":"event","name":"IdentityRegistrySet","inputs":[{"name":"oldRegistry","type":"address","indexed":true,"internalType":"address"},{"name":"newRegistry","type":"address","indexed":true,"internalType":"address"},{"name":"actor","type":"address","indexed":true,"internalType":"address"}],"anonymous":false},{"type":"event","name":"Paused","inputs":[{"name":"account","type":"address","indexed":false,"internalType":"address"}],"anonymous":false},{"type":"event","name":"RoleAdminChanged","inputs":[{"name":"role","type":"bytes32","indexed":true,"internalType":"bytes32"},{"name":"previousAdminRole","type":"bytes32","indexed":true,"internalType":"bytes32"},{"name":"newAdminRole","type":"bytes32","indexed":true,"internalType":"bytes32"}],"anonymous":false},{"type":"event","name":"RoleGranted","inputs":[{"name":"role","type":"bytes32","indexed":true,"internalType":"bytes32"},{"name":"account","type":"address","indexed":true,"internalType":"address"},{"name":"sender","type":"address","indexed":true,"internalType":"address"}],"anonymous":false},{"type":"event","name":"RoleRevoked","inputs":[{"name":"role","type":"bytes32","indexed":true,"internalType":"bytes32"},{"name":"account","type":"address","indexed":true,"internalType":"address"},{"name":"sender","type":"address","indexed":true,"internalType":"address"}],"anonymous":false},{"type":"event","name":"TokensBurned","inputs":[{"name":"from","type":"address","indexed":true,"internalType":"address"},{"name":"amount","type":"uint256","indexed":false,"internalType":"uint256"},{"name":"actor","type":"address","indexed":true,"internalType":"address"}],"anonymous":false},{"type":"event","name":"TokensMinted","inputs":[{"name":"to","type":"address","indexed":true,"internalType":"address"},{"name":"amount","type":"uint256","indexed":false,"internalType":"uint256"},{"name":"actor","type":"address","indexed":true,"internalType":"address"}],"anonymous":false},{"type":"event","name":"Transfer","inputs":[{"name":"from","type":"address","indexed":true,"internalType":"address"},{"name":"to","type":"address","indexed":true,"internalType":"address"},{"name":"value","type":"uint256","indexed":false,"internalType":"uint256"}],"anonymous":false},{"type":"event","name":"Unpaused","inputs":[{"name":"account","type":"address","indexed":false,"internalType":"address"}],"anonymous":false},{"type":"error","name":"AccessControlBadConfirmation","inputs":[]},{"type":"error","name":"AccessControlUnauthorizedAccount","inputs":[{"name":"account","type":"address","internalType":"address"},{"name":"neededRole","type":"bytes32","internalType":"bytes32"}]},{"type":"error","name":"DREIT__AccountFrozen","inputs":[{"name":"account","type":"address","internalType":"address"}]},{"type":"error","name":"DREIT__ArrayLengthMismatch","inputs":[]},{"type":"error","name":"DREIT__InsufficientBalance","inputs":[]},{"type":"error","name":"DREIT__InvalidAmount","inputs":[]},{"type":"error","name":"DREIT__KYCNotVerified","inputs":[{"name":"investor","type":"address","internalType":"address"}]},{"type":"error","name":"DREIT__MaxSupplyExceeded","inputs":[{"name":"wouldBe","type":"uint256","internalType":"uint256"},{"name":"max","type":"uint256","internalType":"uint256"}]},{"type":"error","name":"DREIT__NoDividendsToClaim","inputs":[]},{"type":"error","name":"DREIT__NotContract","inputs":[{"name":"addr","type":"address","internalType":"address"}]},{"type":"error","name":"DREIT__SelfTransfer","inputs":[]},{"type":"error","name":"DREIT__TransferNotCompliant","inputs":[{"name":"from","type":"address","internalType":"address"},{"name":"to","type":"address","internalType":"address"}]},{"type":"error","name":"DREIT__ZeroAddress","inputs":[]},{"type":"error","name":"ERC20InsufficientAllowance","inputs":[{"name":"spender","type":"address","internalType":"address"},{"name":"allowance","type":"uint256","internalType":"uint256"},{"name":"needed","type":"uint256","internalType":"uint256"}]},{"type":"error","name":"ERC20InsufficientBalance","inputs":[{"name":"sender","type":"address","internalType":"address"},{"name":"balance","type":"uint256","internalType":"uint256"},{"name":"needed","type":"uint256","internalType":"uint256"}]},{"type":"error","name":"ERC20InvalidApprover","inputs":[{"name":"approver","type":"address","internalType":"address"}]},{"type":"error","name":"ERC20InvalidReceiver","inputs":[{"name":"receiver","type":"address","internalType":"address"}]},{"type":"error","name":"ERC20InvalidSender","inputs":[{"name":"sender","type":"address","internalType":"address"}]},{"type":"error","name":"ERC20InvalidSpender","inputs":[{"name":"spender","type":"address","internalType":"address"}]},{"type":"error","name":"EnforcedPause","inputs":[]},{"type":"error","name":"ExpectedPause","inputs":[]},{"type":"error","name":"ReentrancyGuardReentrantCall","inputs":[]},{"type":"error","name":"SafeERC20FailedOperation","inputs":[{"name":"token","type":"address","internalType":"address"}]}],"bytecode":{"object":"0x60a060405234801561000f575f5ffd5b5060405161350938038061350983398101604081905261002e916103eb565b8282600361003c8382610514565b5060046100498282610514565b505050600161006261005f61024d60201b60201c565b90565b556001600160a01b03861661008a576040516339379d0760e01b815260040160405180910390fd5b6001600160a01b0385166100b1576040516339379d0760e01b815260040160405180910390fd5b6001600160a01b0384166100d8576040516339379d0760e01b815260040160405180910390fd5b6001600160a01b0381166100ff576040516339379d0760e01b815260040160405180910390fd5b856001600160a01b03163b5f03610139576040516333d26a8f60e21b81526001600160a01b03871660048201526024015b60405180910390fd5b846001600160a01b03163b5f0361016e576040516333d26a8f60e21b81526001600160a01b0386166004820152602401610130565b836001600160a01b03163b5f036101a3576040516333d26a8f60e21b81526001600160a01b0385166004820152602401610130565b6001600160a01b0386811660805260068054610100600160a81b03191661010088841602179055600780546001600160a01b0319169186169190911790556101eb5f82610271565b506102167f114e74f6ea3bd819998f78687bfcb11b140da08e9b7d222fa9c1f1ba1f2aa12282610271565b506102417f20b5f7ac978e5d6199de06401411960dfa81d2f762655f6206bdc61d46fc19e682610271565b505050505050506105ce565b7f9b779b17422d0df92223018b32b4d1fa46e071723d6817e2486d003becc55f0090565b5f8281526005602090815260408083206001600160a01b038516845290915281205460ff16610315575f8381526005602090815260408083206001600160a01b03861684529091529020805460ff191660011790556102cd3390565b6001600160a01b0316826001600160a01b0316847f2f8788117e7eff1d82e926ec794901d17c78024a50270940304540a733656f0d60405160405180910390a4506001610318565b505f5b92915050565b80516001600160a01b0381168114610334575f5ffd5b919050565b634e487b7160e01b5f52604160045260245ffd5b5f82601f83011261035c575f5ffd5b81516001600160401b0381111561037557610375610339565b604051601f8201601f19908116603f011681016001600160401b03811182821017156103a3576103a3610339565b6040528181528382016020018510156103ba575f5ffd5b5f5b828110156103d8576020818601810151838301820152016103bc565b505f918101602001919091529392505050565b5f5f5f5f5f5f60c08789031215610400575f5ffd5b6104098761031e565b95506104176020880161031e565b94506104256040880161031e565b60608801519094506001600160401b03811115610440575f5ffd5b61044c89828a0161034d565b608089015190945090506001600160401b03811115610469575f5ffd5b61047589828a0161034d565b92505061048460a0880161031e565b90509295509295509295565b600181811c908216806104a457607f821691505b6020821081036104c257634e487b7160e01b5f52602260045260245ffd5b50919050565b601f82111561050f57805f5260205f20601f840160051c810160208510156104ed5750805b601f840160051c820191505b8181101561050c575f81556001016104f9565b50505b505050565b81516001600160401b0381111561052d5761052d610339565b6105418161053b8454610490565b846104c8565b6020601f821160018114610573575f831561055c5750848201515b5f19600385901b1c1916600184901b17845561050c565b5f84815260208120601f198516915b828110156105a25787850151825560209485019460019092019101610582565b50848210156105bf57868401515f19600387901b60f8161c191681555b50505050600190811b01905550565b608051612f006106095f395f818161056d0152818161074d015281816110f201528181611332015281816115920152611b3f0152612f005ff3fe608060405234801561000f575f5ffd5b506004361061024a575f3560e01c80635c975abb11610140578063a217fddf116100bf578063cbf3f86111610084578063cbf3f861146104f7578063d547741f1461050a578063dd62ed3e1461051d578063e74307bb14610555578063e9cbd82214610568578063fad9aba31461058f575f5ffd5b8063a217fddf146104a3578063a53df2e2146104aa578063a9059cbb146104b2578063c7926458146104c5578063c8f4eb6b146104e4575f5ffd5b80638284ce3e116101055780638284ce3e1461045957806382aefa241461046c5780638456cb591461048057806391d148541461048857806395d89b411461049b575f5ffd5b80635c975abb14610417578063668038e014610422578063685731071461042a57806370a082311461043d57806377ec0feb14610450575f5ffd5b8063313ce567116101cc5780633f4ba83a116101915780633f4ba83a146103cd57806340c10f19146103d557806342966c68146103e85780635749c7fc146103fb5780635c78584914610404575f5ffd5b8063313ce567146103745780633243c7911461038357806332cb6b0c1461039657806336568abe146103a75780633ad8b2d7146103ba575f5ffd5b8063144bf58911610212578063144bf589146102fb57806318160ddd1461032257806323b872dd1461032a578063248a9ca31461033d5780632f2ff15d1461035f575f5ffd5b8063013eba921461024e57806301ffc9a71461028057806306fdde03146102a3578063095ea7b3146102b8578063134e18f4146102cb575b5f5ffd5b61026d61025c366004612a53565b600a6020525f908152604090205481565b6040519081526020015b60405180910390f35b61029361028e366004612a73565b610598565b6040519015158152602001610277565b6102ab6105ce565b6040516102779190612a9a565b6102936102c6366004612ae5565b61065e565b6006546102e39061010090046001600160a01b031681565b6040516001600160a01b039091168152602001610277565b61026d7f20b5f7ac978e5d6199de06401411960dfa81d2f762655f6206bdc61d46fc19e681565b60025461026d565b610293610338366004612b0d565b610675565b61026d61034b366004612b47565b5f9081526005602052604090206001015490565b61037261036d366004612b5e565b610698565b005b60405160128152602001610277565b610372610391366004612b47565b6106c2565b61026d690a968163f0a57b40000081565b6103726103b5366004612b5e565b610899565b6103726103c8366004612bcd565b6108d1565b610372610bd8565b6103726103e3366004612ae5565b610bed565b6103726103f6366004612b47565b610f1d565b61026d600c5481565b610372610412366004612c37565b611221565b60065460ff16610293565b610372611476565b610372610438366004612cce565b611608565b61026d61044b366004612a53565b6119c9565b61026d60085481565b61026d610467366004612a53565b6119e3565b61026d5f516020612e8b5f395f51905f5281565b610372611aab565b610293610496366004612b5e565b611abd565b6102ab611ae7565b61026d5f81565b610372611af6565b6102936104c0366004612ae5565b611b7d565b61026d6104d3366004612a53565b600b6020525f908152604090205481565b6007546102e3906001600160a01b031681565b610372610505366004612a53565b611b8a565b610372610518366004612b5e565b611c4f565b61026d61052b366004612d2e565b6001600160a01b039182165f90815260016020908152604080832093909416825291909152205490565b610372610563366004612a53565b611c73565b6102e37f000000000000000000000000000000000000000000000000000000000000000081565b61026d60095481565b5f6001600160e01b03198216637965db0b60e01b14806105c857506301ffc9a760e01b6001600160e01b03198316145b92915050565b6060600380546105dd90612d56565b80601f016020809104026020016040519081016040528092919081815260200182805461060990612d56565b80156106545780601f1061062b57610100808354040283529160200191610654565b820191905f5260205f20905b81548152906001019060200180831161063757829003601f168201915b5050505050905090565b5f3361066b818585611d2e565b5060019392505050565b5f33610682858285611d3b565b61068d858585611db1565b506001949350505050565b5f828152600560205260409020600101546106b281611e0e565b6106bc8383611e18565b50505050565b5f516020612e8b5f395f51905f526106d981611e0e565b6106e1611ea9565b6106e9611ecd565b815f0361070957604051630232ed2360e61b815260040160405180910390fd5b6002545f0361072b57604051630232ed2360e61b815260040160405180910390fd5b5f6009548361073a9190612da2565b5f60095590506107756001600160a01b037f000000000000000000000000000000000000000000000000000000000000000016333086611ee8565b5f61077f60025490565b61079183670de0b6b3a7640000612db5565b61079b9190612dcc565b9050805f036107bd57604051630232ed2360e61b815260040160405180910390fd5b5f670de0b6b3a76400006107d060025490565b6107da9084612db5565b6107e49190612dcc565b90506107f08184612deb565b60095f8282546108009190612da2565b925050819055508160085f8282546108189190612da2565b9250508190555080600c5f8282546108309190612da2565b909155505060085460408051878152602081018590529081019190915233907f57fee45ef71317e743874cd4183af85bab9709e0a45ed6f2a20e89e911a62b989060600160405180910390a250505061089560015f516020612eab5f395f51905f5255565b5050565b6001600160a01b03811633146108c25760405163334bd91960e11b815260040160405180910390fd5b6108cc8282611f1e565b505050565b7f20b5f7ac978e5d6199de06401411960dfa81d2f762655f6206bdc61d46fc19e66108fb81611e0e565b610903611ea9565b61090b611ecd565b856001600160a01b038116610933576040516339379d0760e01b815260040160405180910390fd5b856001600160a01b03811661095b576040516339379d0760e01b815260040160405180910390fd5b855f0361097b57604051630232ed2360e61b815260040160405180910390fd5b85610985896119c9565b10156109a45760405163dabcaf6d60e01b815260040160405180910390fd5b6007546040516372c1cc1b60e11b81526001600160a01b0389811660048301529091169063e583983690602401602060405180830381865afa1580156109ec573d5f5f3e3d5ffd5b505050506040513d601f19601f82011682018060405250810190610a109190612dfe565b15610a3e5760405163191064f160e01b81526001600160a01b03881660048201526024015b60405180910390fd5b610a4788611f89565b610a5087611f89565b600754604051633a576e8960e11b81526001600160a01b03909116906374aedd1290610a84908b908b908b90600401612e1d565b602060405180830381865afa158015610a9f573d5f5f3e3d5ffd5b505050506040513d601f19601f82011682018060405250810190610ac39190612dfe565b610af357604051631d36dbfb60e01b81526001600160a01b03808a16600483015288166024820152604401610a35565b610afe888888611db1565b6007546040516322ebca6d60e21b81526001600160a01b0390911690638baf29b490610b32908b908b908b90600401612e1d565b5f604051808303815f87803b158015610b49575f5ffd5b505af1158015610b5b573d5f5f3e3d5ffd5b50505050336001600160a01b0316876001600160a01b0316896001600160a01b03167f6a01d721b408d38e16345dc9fa6816599e5db672c3d6af6c86ade8994eaba2f1898989604051610bb093929190612e41565b60405180910390a45050610bd060015f516020612eab5f395f51905f5255565b505050505050565b5f610be281611e0e565b610bea612023565b50565b5f516020612e8b5f395f51905f52610c0481611e0e565b610c0c611ea9565b610c14611ecd565b826001600160a01b038116610c3c576040516339379d0760e01b815260040160405180910390fd5b6007546040516372c1cc1b60e11b81526001600160a01b0380871660048301528692169063e583983690602401602060405180830381865afa158015610c84573d5f5f3e3d5ffd5b505050506040513d601f19601f82011682018060405250810190610ca89190612dfe565b15610cd15760405163191064f160e01b81526001600160a01b0382166004820152602401610a35565b835f03610cf157604051630232ed2360e61b815260040160405180910390fd5b690a968163f0a57b40000084610d0660025490565b610d109190612da2565b1115610d575783610d2060025490565b610d2a9190612da2565b6040516304ccbadd60e41b81526004810191909152690a968163f0a57b4000006024820152604401610a35565b610d6085611f89565b60075460405163eb69761160e01b81526001600160a01b038781166004830152602482018790529091169063eb69761190604401602060405180830381865afa158015610daf573d5f5f3e3d5ffd5b505050506040513d601f19601f82011682018060405250810190610dd39190612dfe565b610e0157604051631d36dbfb60e01b81525f60048201526001600160a01b0386166024820152604401610a35565b6001600160a01b0385165f908152600a6020526040902054158015610e2c5750610e2a856119c9565b155b15610e51576008546001600160a01b0386165f908152600a6020526040902055610e5a565b610e5a85612075565b610e6485856122a8565b600754604051635f8dead360e01b81526001600160a01b0387811660048301526024820187905290911690635f8dead3906044015f604051808303815f87803b158015610eaf575f5ffd5b505af1158015610ec1573d5f5f3e3d5ffd5b50506040518681523392506001600160a01b03881691507f969cd201f68f120baff2bf3c59bc3b534434e08b69a71a14ab85cb79cd3b63e49060200160405180910390a350506108cc60015f516020612eab5f395f51905f5255565b610f25611ea9565b610f2d611ecd565b6007546040516372c1cc1b60e11b81523360048201819052916001600160a01b03169063e583983690602401602060405180830381865afa158015610f74573d5f5f3e3d5ffd5b505050506040513d601f19601f82011682018060405250810190610f989190612dfe565b15610fc15760405163191064f160e01b81526001600160a01b0382166004820152602401610a35565b815f03610fe157604051630232ed2360e61b815260040160405180910390fd5b33610feb81611f89565b600754604051630d371fb760e11b81526001600160a01b0383811660048301526024820186905290911690631a6e3f6e90604401602060405180830381865afa15801561103a573d5f5f3e3d5ffd5b505050506040513d601f19601f8201168201806040525081019061105e9190612dfe565b61108c57604051631d36dbfb60e01b81526001600160a01b03821660048201525f6024820152604401610a35565b61109581612075565b6001600160a01b0381165f908152600b6020526040902054801561115d576001600160a01b0382165f908152600b60205260408120819055600c80548392906110df908490612deb565b9091555061111990506001600160a01b037f00000000000000000000000000000000000000000000000000000000000000001683836122dc565b816001600160a01b03167f5efa67896a23b651b741b525caacba039c00ca7853be3de8eb1f4269e8669c568260405161115491815260200190565b60405180910390a25b6111678285612311565b60075460405163469753b960e11b81526001600160a01b0384811660048301526024820187905290911690638d2ea772906044015f604051808303815f87803b1580156111b2575f5ffd5b505af11580156111c4573d5f5f3e3d5ffd5b50506040518681523392506001600160a01b03851691507f08009940fb138ae33fbb70c10b643e840c71f1654344cc173975a815e117e6879060200160405180910390a3505050610bea60015f516020612eab5f395f51905f5255565b7f20b5f7ac978e5d6199de06401411960dfa81d2f762655f6206bdc61d46fc19e661124b81611e0e565b611253611ea9565b61125b611ecd565b846001600160a01b038116611283576040516339379d0760e01b815260040160405180910390fd5b845f036112a357604051630232ed2360e61b815260040160405180910390fd5b846112ad876119c9565b10156112cc5760405163dabcaf6d60e01b815260040160405180910390fd5b6112d586612075565b6001600160a01b0386165f908152600b6020526040902054801561139d576001600160a01b0387165f908152600b60205260408120819055600c805483929061131f908490612deb565b9091555061135990506001600160a01b037f00000000000000000000000000000000000000000000000000000000000000001688836122dc565b866001600160a01b03167f5efa67896a23b651b741b525caacba039c00ca7853be3de8eb1f4269e8669c568260405161139491815260200190565b60405180910390a25b6113a78787612311565b60075460405163469753b960e11b81526001600160a01b0389811660048301526024820189905290911690638d2ea772906044015f604051808303815f87803b1580156113f2575f5ffd5b505af1158015611404573d5f5f3e3d5ffd5b50505050336001600160a01b0316876001600160a01b03167ff2e63224ccf7cd50acf9f76815690ab6118a53b62778b751b86398d47143629588888860405161144f93929190612e41565b60405180910390a3505061146f60015f516020612eab5f395f51905f5255565b5050505050565b61147e611ea9565b611486611ecd565b6007546040516372c1cc1b60e11b81523360048201819052916001600160a01b03169063e583983690602401602060405180830381865afa1580156114cd573d5f5f3e3d5ffd5b505050506040513d601f19601f820116820180604052508101906114f19190612dfe565b1561151a5760405163191064f160e01b81526001600160a01b0382166004820152602401610a35565b61152333611f89565b61152c33612075565b335f908152600b60205260408120549081900361155c57604051634af455f760e01b815260040160405180910390fd5b335f908152600b60205260408120819055600c805483929061157f908490612deb565b909155506115b990506001600160a01b037f00000000000000000000000000000000000000000000000000000000000000001633836122dc565b60405181815233907f5efa67896a23b651b741b525caacba039c00ca7853be3de8eb1f4269e8669c569060200160405180910390a2505061160660015f516020612eab5f395f51905f5255565b565b5f516020612e8b5f395f51905f5261161f81611e0e565b611627611ea9565b61162f611ecd565b838281146116505760405163b3585f4760e01b815260040160405180910390fd5b60648111156116725760405163b3585f4760e01b815260040160405180910390fd5b5f5f5b828110156116ab5785858281811061168f5761168f612e76565b90506020020135826116a19190612da2565b9150600101611675565b50690a968163f0a57b400000816116c160025490565b6116cb9190612da2565b11156116db5780610d2060025490565b5f5b828110156119b0575f8888838181106116f8576116f8612e76565b905060200201602081019061170d9190612a53565b90505f87878481811061172257611722612e76565b60200291909101359150506001600160a01b038216611754576040516339379d0760e01b815260040160405180910390fd5b6007546040516372c1cc1b60e11b81526001600160a01b0384811660048301529091169063e583983690602401602060405180830381865afa15801561179c573d5f5f3e3d5ffd5b505050506040513d601f19601f820116820180604052508101906117c09190612dfe565b156117e95760405163191064f160e01b81526001600160a01b0383166004820152602401610a35565b805f036117f75750506119a8565b61180082611f89565b60075460405163eb69761160e01b81526001600160a01b038481166004830152602482018490529091169063eb69761190604401602060405180830381865afa15801561184f573d5f5f3e3d5ffd5b505050506040513d601f19601f820116820180604052508101906118739190612dfe565b6118a157604051631d36dbfb60e01b81525f60048201526001600160a01b0383166024820152604401610a35565b6001600160a01b0382165f908152600a60205260409020541580156118cc57506118ca826119c9565b155b156118f1576008546001600160a01b0383165f908152600a60205260409020556118fa565b6118fa82612075565b61190482826122a8565b600754604051635f8dead360e01b81526001600160a01b0384811660048301526024820184905290911690635f8dead3906044015f604051808303815f87803b15801561194f575f5ffd5b505af1158015611961573d5f5f3e3d5ffd5b50506040518381523392506001600160a01b03851691507f969cd201f68f120baff2bf3c59bc3b534434e08b69a71a14ab85cb79cd3b63e49060200160405180910390a350505b6001016116dd565b50505061146f60015f516020612eab5f395f51905f5255565b6001600160a01b03165f9081526020819052604090205490565b5f5f6119ee836119c9565b9050805f03611a135750506001600160a01b03165f908152600b602052604090205490565b6001600160a01b0383165f908152600a6020526040812054600854909190611a3c908390612deb565b9050805f03611a6357505050506001600160a01b03165f908152600b602052604090205490565b670de0b6b3a7640000611a768285612db5565b611a809190612dcc565b6001600160a01b0386165f908152600b6020526040902054611aa29190612da2565b95945050505050565b5f611ab581611e0e565b610bea612345565b5f9182526005602090815260408084206001600160a01b0393909316845291905290205460ff1690565b6060600480546105dd90612d56565b5f611b0081611e0e565b611b08611ecd565b6009545f03611b2a57604051634af455f760e01b815260040160405180910390fd5b600980545f909155611b666001600160a01b037f00000000000000000000000000000000000000000000000000000000000000001633836122dc565b50610bea60015f516020612eab5f395f51905f5255565b5f3361066b818585611db1565b5f611b9481611e0e565b816001600160a01b038116611bbc576040516339379d0760e01b815260040160405180910390fd5b826001600160a01b03163b5f03611bf1576040516333d26a8f60e21b81526001600160a01b0384166004820152602401610a35565b600680546001600160a01b03858116610100818102610100600160a81b031985161790945560405193909204169133919083907fd8fa692ac0d9e4290e5918daea75c089d062de460417cbe9e6378d83d928eb01905f90a450505050565b5f82815260056020526040902060010154611c6981611e0e565b6106bc8383611f1e565b5f611c7d81611e0e565b816001600160a01b038116611ca5576040516339379d0760e01b815260040160405180910390fd5b826001600160a01b03163b5f03611cda576040516333d26a8f60e21b81526001600160a01b0384166004820152602401610a35565b600780546001600160a01b038581166001600160a01b031983168117909355604051911691339183907fd52694afd1fd09e8c1dd126d6595702b7845f9815d076575efe98c9050655977905f90a450505050565b6108cc8383836001612382565b6001600160a01b038381165f908152600160209081526040808320938616835292905220545f198110156106bc5781811015611da357604051637dc7a0d960e11b81526001600160a01b03841660048201526024810182905260448101839052606401610a35565b6106bc84848484035f612382565b6001600160a01b038316611dda57604051634b637e8f60e11b81525f6004820152602401610a35565b6001600160a01b038216611e035760405163ec442f0560e01b81525f6004820152602401610a35565b6108cc838383612454565b610bea81336127b8565b5f611e238383611abd565b611ea2575f8381526005602090815260408083206001600160a01b03861684529091529020805460ff19166001179055611e5a3390565b6001600160a01b0316826001600160a01b0316847f2f8788117e7eff1d82e926ec794901d17c78024a50270940304540a733656f0d60405160405180910390a45060016105c8565b505f6105c8565b60065460ff16156116065760405163d93c066560e01b815260040160405180910390fd5b611ed56127f1565b60025f516020612eab5f395f51905f5255565b611ef6848484846001612820565b6106bc57604051635274afe760e01b81526001600160a01b0385166004820152602401610a35565b5f611f298383611abd565b15611ea2575f8381526005602090815260408083206001600160a01b0386168085529252808320805460ff1916905551339286917ff6391f5c32d9c69d2a47ea670b442974b53935d1edc7fd64eb21e047a839171b9190a45060016105c8565b60065460405163b9209e3360e01b81526001600160a01b0383811660048301526101009092049091169063b9209e3390602401602060405180830381865afa158015611fd7573d5f5f3e3d5ffd5b505050506040513d601f19601f82011682018060405250810190611ffb9190612dfe565b610bea57604051630319b0f360e51b81526001600160a01b0382166004820152602401610a35565b61202b61288d565b6006805460ff191690557f5db9ee0a495bf2e6ff9c91a7834c1ba4fdd244a5e8aa4e537bd38aeae4b073aa335b6040516001600160a01b03909116815260200160405180910390a1565b6001600160a01b0381166120865750565b6001600160a01b0381165f908152600a6020526040812054906120a8836119c9565b9050815f03612195575f6008541180156120c157505f81115b15612175575f670de0b6b3a7640000600854836120de9190612db5565b6120e89190612dcc565b90508015612173576001600160a01b0384165f908152600b602052604081208054839290612117908490612da2565b9250508190555080600c5f82825461212f9190612da2565b90915550506040518181526001600160a01b038516907fcf93d0fe7dbf55165720beb87a257ab15f2fb42115a04e0e6cc4b65bd0362dec9060200160405180910390a25b505b50506008546001600160a01b039091165f908152600a6020526040902055565b805f036121bc5750506008546001600160a01b039091165f908152600a6020526040902055565b5f826008546121cb9190612deb565b9050805f036121da5750505050565b5f670de0b6b3a76400006121ee8385612db5565b6121f89190612dcc565b90508015612283576001600160a01b0385165f908152600b602052604081208054839290612227908490612da2565b9250508190555080600c5f82825461223f9190612da2565b90915550506040518181526001600160a01b038616907fcf93d0fe7dbf55165720beb87a257ab15f2fb42115a04e0e6cc4b65bd0362dec9060200160405180910390a25b50506008546001600160a01b039093165f908152600a60205260409020929092555050565b6001600160a01b0382166122d15760405163ec442f0560e01b81525f6004820152602401610a35565b6108955f8383612454565b6122e983838360016128b0565b6108cc57604051635274afe760e01b81526001600160a01b0384166004820152602401610a35565b6001600160a01b03821661233a57604051634b637e8f60e11b81525f6004820152602401610a35565b610895825f83612454565b61234d611ea9565b6006805460ff191660011790557f62e78cea01bee320cd4e420270b5ea74000d11b0c9f74754ebdbfc544b05a2586120583390565b6001600160a01b0384166123ab5760405163e602df0560e01b81525f6004820152602401610a35565b6001600160a01b0383166123d457604051634a1406b160e11b81525f6004820152602401610a35565b6001600160a01b038085165f90815260016020908152604080832093871683529290522082905580156106bc57826001600160a01b0316846001600160a01b03167f8c5be1e5ebec7d5bd14f71427d1e84f3dd0314c0f7b2291e5b200ac8c7c3b9258460405161244691815260200190565b60405180910390a350505050565b61245c611ea9565b816001600160a01b0316836001600160a01b031614801561248557506001600160a01b03831615155b156124a35760405163e7225f5360e01b815260040160405180910390fd5b306001600160a01b038316036124cc5760405163e7225f5360e01b815260040160405180910390fd5b6001600160a01b038316158015906124ec57506001600160a01b03821615155b15612753576007546040516372c1cc1b60e11b81526001600160a01b0385811660048301529091169063e583983690602401602060405180830381865afa158015612539573d5f5f3e3d5ffd5b505050506040513d601f19601f8201168201806040525081019061255d9190612dfe565b156125865760405163191064f160e01b81526001600160a01b0384166004820152602401610a35565b6007546040516372c1cc1b60e11b81526001600160a01b0384811660048301529091169063e583983690602401602060405180830381865afa1580156125ce573d5f5f3e3d5ffd5b505050506040513d601f19601f820116820180604052508101906125f29190612dfe565b1561261b5760405163191064f160e01b81526001600160a01b0383166004820152602401610a35565b61262483611f89565b61262d82611f89565b600754604051633a576e8960e11b81526001600160a01b03909116906374aedd129061266190869086908690600401612e1d565b602060405180830381865afa15801561267c573d5f5f3e3d5ffd5b505050506040513d601f19601f820116820180604052508101906126a09190612dfe565b6126d057604051631d36dbfb60e01b81526001600160a01b03808516600483015283166024820152604401610a35565b6126d983612075565b6126e282612075565b6126ed838383612912565b6007546040516322ebca6d60e21b81526001600160a01b0390911690638baf29b49061272190869086908690600401612e1d565b5f604051808303815f87803b158015612738575f5ffd5b505af115801561274a573d5f5f3e3d5ffd5b50505050505050565b6001600160a01b0383166127ad576001600160a01b0382165f908152600a602052604090205415801561278c575061278a826119c9565b155b156127ad576008546001600160a01b0383165f908152600a60205260409020555b6108cc838383612912565b6127c28282611abd565b6108955760405163e2517d3f60e01b81526001600160a01b038216600482015260248101839052604401610a35565b5f516020612eab5f395f51905f525460020361160657604051633ee5aeb560e01b815260040160405180910390fd5b6040516323b872dd60e01b5f8181526001600160a01b038781166004528616602452604485905291602083606481808c5af1925060015f5114831661287c578383151615612870573d5f823e3d81fd5b5f883b113d1516831692505b604052505f60605295945050505050565b60065460ff1661160657604051638dfc202b60e01b815260040160405180910390fd5b60405163a9059cbb60e01b5f8181526001600160a01b038616600452602485905291602083604481808b5af1925060015f511483166129065783831516156128fa573d5f823e3d81fd5b5f873b113d1516831692505b60405250949350505050565b6001600160a01b03831661293c578060025f8282546129319190612da2565b909155506129ac9050565b6001600160a01b0383165f908152602081905260409020548181101561298e5760405163391434e360e21b81526001600160a01b03851660048201526024810182905260448101839052606401610a35565b6001600160a01b0384165f9081526020819052604090209082900390555b6001600160a01b0382166129c8576002805482900390556129e6565b6001600160a01b0382165f9081526020819052604090208054820190555b816001600160a01b0316836001600160a01b03167fddf252ad1be2c89b69c2b068fc378daa952ba7f163c4a11628f55a4df523b3ef83604051612a2b91815260200190565b60405180910390a3505050565b80356001600160a01b0381168114612a4e575f5ffd5b919050565b5f60208284031215612a63575f5ffd5b612a6c82612a38565b9392505050565b5f60208284031215612a83575f5ffd5b81356001600160e01b031981168114612a6c575f5ffd5b602081525f82518060208401525f5b81811015612ac65760208186018101516040868401015201612aa9565b505f604082850101526040601f19601f83011684010191505092915050565b5f5f60408385031215612af6575f5ffd5b612aff83612a38565b946020939093013593505050565b5f5f5f60608486031215612b1f575f5ffd5b612b2884612a38565b9250612b3660208501612a38565b929592945050506040919091013590565b5f60208284031215612b57575f5ffd5b5035919050565b5f5f60408385031215612b6f575f5ffd5b82359150612b7f60208401612a38565b90509250929050565b5f5f83601f840112612b98575f5ffd5b50813567ffffffffffffffff811115612baf575f5ffd5b602083019150836020828501011115612bc6575f5ffd5b9250929050565b5f5f5f5f5f60808688031215612be1575f5ffd5b612bea86612a38565b9450612bf860208701612a38565b935060408601359250606086013567ffffffffffffffff811115612c1a575f5ffd5b612c2688828901612b88565b969995985093965092949392505050565b5f5f5f5f60608587031215612c4a575f5ffd5b612c5385612a38565b935060208501359250604085013567ffffffffffffffff811115612c75575f5ffd5b612c8187828801612b88565b95989497509550505050565b5f5f83601f840112612c9d575f5ffd5b50813567ffffffffffffffff811115612cb4575f5ffd5b6020830191508360208260051b8501011115612bc6575f5ffd5b5f5f5f5f60408587031215612ce1575f5ffd5b843567ffffffffffffffff811115612cf7575f5ffd5b612d0387828801612c8d565b909550935050602085013567ffffffffffffffff811115612d22575f5ffd5b612c8187828801612c8d565b5f5f60408385031215612d3f575f5ffd5b612d4883612a38565b9150612b7f60208401612a38565b600181811c90821680612d6a57607f821691505b602082108103612d8857634e487b7160e01b5f52602260045260245ffd5b50919050565b634e487b7160e01b5f52601160045260245ffd5b808201808211156105c8576105c8612d8e565b80820281158282048414176105c8576105c8612d8e565b5f82612de657634e487b7160e01b5f52601260045260245ffd5b500490565b818103818111156105c8576105c8612d8e565b5f60208284031215612e0e575f5ffd5b81518015158114612a6c575f5ffd5b6001600160a01b039384168152919092166020820152604081019190915260600190565b83815260406020820152816040820152818360608301375f818301606090810191909152601f909201601f1916010192915050565b634e487b7160e01b5f52603260045260245ffdfe114e74f6ea3bd819998f78687bfcb11b140da08e9b7d222fa9c1f1ba1f2aa1229b779b17422d0df92223018b32b4d1fa46e071723d6817e2486d003becc55f00a2646970667358221220b99d102c58c94b51b16f0bf53ca686433f3f33f6d1df2e11207e5e65442113cf64736f6c634300081c0033","linkReferences":{}},"methodIdentifiers":{"DEFAULT_ADMIN_ROLE()":"a217fddf","ISSUER_ROLE()":"82aefa24","MAX_SUPPLY()":"32cb6b0c","REGULATOR_ROLE()":"144bf589","allowance(address,address)":"dd62ed3e","approve(address,uint256)":"095ea7b3","balanceOf(address)":"70a08231","batchMint(address[],uint256[])":"68573107","burn(uint256)":"42966c68","claimDividends()":"668038e0","complianceEngine()":"c8f4eb6b","decimals()":"313ce567","distributeDividends(uint256)":"3243c791","dividendPerToken()":"77ec0feb","dust()":"fad9aba3","forcedBurn(address,uint256,string)":"5c785849","forcedTransfer(address,address,uint256,string)":"3ad8b2d7","getClaimableDividends(address)":"8284ce3e","getRoleAdmin(bytes32)":"248a9ca3","grantRole(bytes32,address)":"2f2ff15d","hasRole(bytes32,address)":"91d14854","identityRegistry()":"134e18f4","lastClaimed(address)":"013eba92","mint(address,uint256)":"40c10f19","name()":"06fdde03","pause()":"8456cb59","paused()":"5c975abb","pendingDividends(address)":"c7926458","renounceRole(bytes32,address)":"36568abe","revokeRole(bytes32,address)":"d547741f","setComplianceEngine(address)":"e74307bb","setIdentityRegistry(address)":"cbf3f861","stablecoin()":"e9cbd822","supportsInterface(bytes4)":"01ffc9a7","sweepDust()":"a53df2e2","symbol()":"95d89b41","totalPendingDividends()":"5749c7fc","totalSupply()":"18160ddd","transfer(address,uint256)":"a9059cbb","transferFrom(address,address,uint256)":"23b872dd","unpause()":"3f4ba83a"},"id":52}