{"abi":[{"type":"constructor","inputs":[{"name":"admin","type":"address","internalType":"address"}],"stateMutability":"nonpayable"},{"type":"function","name":"DEFAULT_ADMIN_ROLE","inputs":[],"outputs":[{"name":"","type":"bytes32","internalType":"bytes32"}],"stateMutability":"view"},{"type":"function","name":"ISSUER_ROLE","inputs":[],"outputs":[{"name":"","type":"bytes32","internalType":"bytes32"}],"stateMutability":"view"},{"type":"function","name":"addTrustedIssuer","inputs":[{"name":"trustedIssuer","type":"address","internalType":"address"},{"name":"claimTopics","type":"uint256[]","internalType":"uint256[]"}],"outputs":[],"stateMutability":"nonpayable"},{"type":"function","name":"batchRegisterIdentity","inputs":[{"name":"investors","type":"address[]","internalType":"address[]"},{"name":"identities","type":"address[]","internalType":"address[]"},{"name":"countries","type":"uint16[]","internalType":"uint16[]"}],"outputs":[],"stateMutability":"nonpayable"},{"type":"function","name":"contains","inputs":[{"name":"investor","type":"address","internalType":"address"}],"outputs":[{"name":"","type":"bool","internalType":"bool"}],"stateMutability":"view"},{"type":"function","name":"deleteIdentity","inputs":[{"name":"investor","type":"address","internalType":"address"}],"outputs":[],"stateMutability":"nonpayable"},{"type":"function","name":"getClaimTopicsRegistry","inputs":[],"outputs":[{"name":"","type":"address","internalType":"address"}],"stateMutability":"view"},{"type":"function","name":"getIdentityRegistryStorage","inputs":[],"outputs":[{"name":"","type":"address","internalType":"address"}],"stateMutability":"view"},{"type":"function","name":"getRoleAdmin","inputs":[{"name":"role","type":"bytes32","internalType":"bytes32"}],"outputs":[{"name":"","type":"bytes32","internalType":"bytes32"}],"stateMutability":"view"},{"type":"function","name":"getTrustedIssuerClaimTopics","inputs":[{"name":"trustedIssuer","type":"address","internalType":"address"}],"outputs":[{"name":"","type":"uint256[]","internalType":"uint256[]"}],"stateMutability":"view"},{"type":"function","name":"getTrustedIssuers","inputs":[],"outputs":[{"name":"","type":"address[]","internalType":"address[]"}],"stateMutability":"view"},{"type":"function","name":"getTrustedIssuersRegistry","inputs":[],"outputs":[{"name":"","type":"address","internalType":"address"}],"stateMutability":"view"},{"type":"function","name":"grantRole","inputs":[{"name":"role","type":"bytes32","internalType":"bytes32"},{"name":"account","type":"address","internalType":"address"}],"outputs":[],"stateMutability":"nonpayable"},{"type":"function","name":"hasRole","inputs":[{"name":"role","type":"bytes32","internalType":"bytes32"},{"name":"account","type":"address","internalType":"address"}],"outputs":[{"name":"","type":"bool","internalType":"bool"}],"stateMutability":"view"},{"type":"function","name":"identity","inputs":[{"name":"investor","type":"address","internalType":"address"}],"outputs":[{"name":"identityContract","type":"address","internalType":"address"}],"stateMutability":"view"},{"type":"function","name":"investorCount","inputs":[],"outputs":[{"name":"","type":"uint256","internalType":"uint256"}],"stateMutability":"view"},{"type":"function","name":"investorCountry","inputs":[{"name":"investor","type":"address","internalType":"address"}],"outputs":[{"name":"country","type":"uint16","internalType":"uint16"}],"stateMutability":"view"},{"type":"function","name":"investorType","inputs":[{"name":"investor","type":"address","internalType":"address"}],"outputs":[{"name":"","type":"uint8","internalType":"enum IIdentityRegistry.InvestorType"}],"stateMutability":"view"},{"type":"function","name":"isTrustedIssuer","inputs":[{"name":"trustedIssuer","type":"address","internalType":"address"}],"outputs":[{"name":"","type":"bool","internalType":"bool"}],"stateMutability":"view"},{"type":"function","name":"isVerified","inputs":[{"name":"investor","type":"address","internalType":"address"}],"outputs":[{"name":"","type":"bool","internalType":"bool"}],"stateMutability":"view"},{"type":"function","name":"isVerifiedWithDetails","inputs":[{"name":"investor","type":"address","internalType":"address"}],"outputs":[{"name":"status","type":"uint8","internalType":"enum IIdentityRegistry.VerificationStatus"},{"name":"invType","type":"uint8","internalType":"enum IIdentityRegistry.InvestorType"}],"stateMutability":"view"},{"type":"function","name":"kycExpiry","inputs":[{"name":"investor","type":"address","internalType":"address"}],"outputs":[{"name":"expiry","type":"uint256","internalType":"uint256"}],"stateMutability":"view"},{"type":"function","name":"pause","inputs":[],"outputs":[],"stateMutability":"nonpayable"},{"type":"function","name":"paused","inputs":[],"outputs":[{"name":"","type":"bool","internalType":"bool"}],"stateMutability":"view"},{"type":"function","name":"registerIdentity","inputs":[{"name":"investor","type":"address","internalType":"address"},{"name":"identityAddr","type":"address","internalType":"address"},{"name":"country","type":"uint16","internalType":"uint16"},{"name":"investorType_","type":"uint8","internalType":"enum IIdentityRegistry.InvestorType"},{"name":"kycExpiry_","type":"uint256","internalType":"uint256"}],"outputs":[],"stateMutability":"nonpayable"},{"type":"function","name":"registerIdentity","inputs":[{"name":"investor","type":"address","internalType":"address"},{"name":"identityAddr","type":"address","internalType":"address"},{"name":"country","type":"uint16","internalType":"uint16"}],"outputs":[],"stateMutability":"nonpayable"},{"type":"function","name":"removeTrustedIssuer","inputs":[{"name":"trustedIssuer","type":"address","internalType":"address"}],"outputs":[],"stateMutability":"nonpayable"},{"type":"function","name":"renounceRole","inputs":[{"name":"role","type":"bytes32","internalType":"bytes32"},{"name":"callerConfirmation","type":"address","internalType":"address"}],"outputs":[],"stateMutability":"nonpayable"},{"type":"function","name":"revokeRole","inputs":[{"name":"role","type":"bytes32","internalType":"bytes32"},{"name":"account","type":"address","internalType":"address"}],"outputs":[],"stateMutability":"nonpayable"},{"type":"function","name":"setClaimTopicsRegistry","inputs":[{"name":"claimTopicsRegistry","type":"address","internalType":"address"}],"outputs":[],"stateMutability":"nonpayable"},{"type":"function","name":"setIdentityRegistryStorage","inputs":[{"name":"identityRegistryStorage","type":"address","internalType":"address"}],"outputs":[],"stateMutability":"nonpayable"},{"type":"function","name":"setToken","inputs":[{"name":"_token","type":"address","internalType":"address"}],"outputs":[],"stateMutability":"nonpayable"},{"type":"function","name":"setTrustedIssuersRegistry","inputs":[{"name":"trustedIssuersRegistry","type":"address","internalType":"address"}],"outputs":[],"stateMutability":"nonpayable"},{"type":"function","name":"supportsInterface","inputs":[{"name":"interfaceId","type":"bytes4","internalType":"bytes4"}],"outputs":[{"name":"","type":"bool","internalType":"bool"}],"stateMutability":"view"},{"type":"function","name":"token","inputs":[],"outputs":[{"name":"","type":"address","internalType":"address"}],"stateMutability":"view"},{"type":"function","name":"unpause","inputs":[],"outputs":[],"stateMutability":"nonpayable"},{"type":"function","name":"updateCountry","inputs":[{"name":"investor","type":"address","internalType":"address"},{"name":"country","type":"uint16","internalType":"uint16"}],"outputs":[],"stateMutability":"nonpayable"},{"type":"function","name":"updateIdentity","inputs":[{"name":"investor","type":"address","internalType":"address"},{"name":"identityAddr","type":"address","internalType":"address"}],"outputs":[],"stateMutability":"nonpayable"},{"type":"function","name":"updateInvestorType","inputs":[{"name":"investor","type":"address","internalType":"address"},{"name":"invType","type":"uint8","internalType":"enum IIdentityRegistry.InvestorType"}],"outputs":[],"stateMutability":"nonpayable"},{"type":"function","name":"updateKYCExpiry","inputs":[{"name":"investor","type":"address","internalType":"address"},{"name":"expiry","type":"uint256","internalType":"uint256"}],"outputs":[],"stateMutability":"nonpayable"},{"type":"function","name":"updateTrustedIssuerClaimTopics","inputs":[{"name":"trustedIssuer","type":"address","internalType":"address"},{"name":"claimTopics","type":"uint256[]","internalType":"uint256[]"}],"outputs":[],"stateMutability":"nonpayable"},{"type":"event","name":"ClaimTopicsRegistrySet","inputs":[{"name":"registry","type":"address","indexed":true,"internalType":"address"}],"anonymous":false},{"type":"event","name":"CountryUpdated","inputs":[{"name":"investor","type":"address","indexed":true,"internalType":"address"},{"name":"country","type":"uint16","indexed":true,"internalType":"uint16"}],"anonymous":false},{"type":"event","name":"IdentityRegistered","inputs":[{"name":"investor","type":"address","indexed":true,"internalType":"address"},{"name":"identity","type":"address","indexed":true,"internalType":"address"}],"anonymous":false},{"type":"event","name":"IdentityRegistryStorageSet","inputs":[{"name":"storage_","type":"address","indexed":true,"internalType":"address"}],"anonymous":false},{"type":"event","name":"IdentityRemoved","inputs":[{"name":"investor","type":"address","indexed":true,"internalType":"address"},{"name":"identity","type":"address","indexed":true,"internalType":"address"}],"anonymous":false},{"type":"event","name":"IdentityUpdated","inputs":[{"name":"investor","type":"address","indexed":true,"internalType":"address"},{"name":"oldIdentity","type":"address","indexed":true,"internalType":"address"},{"name":"newIdentity","type":"address","indexed":true,"internalType":"address"}],"anonymous":false},{"type":"event","name":"InvestorTypeUpdated","inputs":[{"name":"investor","type":"address","indexed":true,"internalType":"address"},{"name":"investorType","type":"uint8","indexed":true,"internalType":"enum IIdentityRegistry.InvestorType"}],"anonymous":false},{"type":"event","name":"KYCExpiryUpdated","inputs":[{"name":"investor","type":"address","indexed":true,"internalType":"address"},{"name":"expiry","type":"uint256","indexed":false,"internalType":"uint256"}],"anonymous":false},{"type":"event","name":"Paused","inputs":[{"name":"account","type":"address","indexed":false,"internalType":"address"}],"anonymous":false},{"type":"event","name":"RoleAdminChanged","inputs":[{"name":"role","type":"bytes32","indexed":true,"internalType":"bytes32"},{"name":"previousAdminRole","type":"bytes32","indexed":true,"internalType":"bytes32"},{"name":"newAdminRole","type":"bytes32","indexed":true,"internalType":"bytes32"}],"anonymous":false},{"type":"event","name":"RoleGranted","inputs":[{"name":"role","type":"bytes32","indexed":true,"internalType":"bytes32"},{"name":"account","type":"address","indexed":true,"internalType":"address"},{"name":"sender","type":"address","indexed":true,"internalType":"address"}],"anonymous":false},{"type":"event","name":"RoleRevoked","inputs":[{"name":"role","type":"bytes32","indexed":true,"internalType":"bytes32"},{"name":"account","type":"address","indexed":true,"internalType":"address"},{"name":"sender","type":"address","indexed":true,"internalType":"address"}],"anonymous":false},{"type":"event","name":"TrustedIssuerAdded","inputs":[{"name":"trustedIssuer","type":"address","indexed":true,"internalType":"address"},{"name":"claimTopics","type":"uint256[]","indexed":false,"internalType":"uint256[]"},{"name":"actor","type":"address","indexed":true,"internalType":"address"}],"anonymous":false},{"type":"event","name":"TrustedIssuerClaimTopicsUpdated","inputs":[{"name":"trustedIssuer","type":"address","indexed":true,"internalType":"address"},{"name":"claimTopics","type":"uint256[]","indexed":false,"internalType":"uint256[]"},{"name":"actor","type":"address","indexed":true,"internalType":"address"}],"anonymous":false},{"type":"event","name":"TrustedIssuerRemoved","inputs":[{"name":"trustedIssuer","type":"address","indexed":true,"internalType":"address"},{"name":"actor","type":"address","indexed":true,"internalType":"address"}],"anonymous":false},{"type":"event","name":"TrustedIssuersRegistrySet","inputs":[{"name":"registry","type":"address","indexed":true,"internalType":"address"}],"anonymous":false},{"type":"event","name":"Unpaused","inputs":[{"name":"account","type":"address","indexed":false,"internalType":"address"}],"anonymous":false},{"type":"error","name":"AccessControlBadConfirmation","inputs":[]},{"type":"error","name":"AccessControlUnauthorizedAccount","inputs":[{"name":"account","type":"address","internalType":"address"},{"name":"neededRole","type":"bytes32","internalType":"bytes32"}]},{"type":"error","name":"EnforcedPause","inputs":[]},{"type":"error","name":"ExpectedPause","inputs":[]},{"type":"error","name":"IIdentityRegistry__ArrayLengthMismatch","inputs":[]},{"type":"error","name":"IIdentityRegistry__BatchSizeExceeded","inputs":[{"name":"size","type":"uint256","internalType":"uint256"}]},{"type":"error","name":"IIdentityRegistry__IdentityAlreadyExists","inputs":[{"name":"investor","type":"address","internalType":"address"}]},{"type":"error","name":"IIdentityRegistry__IdentityHasBalance","inputs":[{"name":"investor","type":"address","internalType":"address"}]},{"type":"error","name":"IIdentityRegistry__IdentityNotRegistered","inputs":[{"name":"investor","type":"address","internalType":"address"}]},{"type":"error","name":"IIdentityRegistry__InvalidCountryCode","inputs":[{"name":"country","type":"uint16","internalType":"uint16"}]},{"type":"error","name":"IIdentityRegistry__InvalidIdentity","inputs":[{"name":"identity","type":"address","internalType":"address"}]},{"type":"error","name":"IIdentityRegistry__KYCExpired","inputs":[{"name":"investor","type":"address","internalType":"address"}]},{"type":"error","name":"IIdentityRegistry__KYCExpiryTooSoon","inputs":[{"name":"expiry","type":"uint256","internalType":"uint256"}]},{"type":"error","name":"IIdentityRegistry__NotAuthorizedIssuer","inputs":[{"name":"issuer","type":"address","internalType":"address"}]},{"type":"error","name":"IIdentityRegistry__ZeroAddress","inputs":[]}],"bytecode":{"object":"0x608060405234801561000f575f5ffd5b506040516125bb3803806125bb83398101604081905261002e9161013c565b806001600160a01b03811661005657604051630f2f0f2160e41b815260040160405180910390fd5b6100605f83610093565b5061008b7f114e74f6ea3bd819998f78687bfcb11b140da08e9b7d222fa9c1f1ba1f2aa12283610093565b505050610169565b5f828152602081815260408083206001600160a01b038516845290915281205460ff16610133575f838152602081815260408083206001600160a01b03861684529091529020805460ff191660011790556100eb3390565b6001600160a01b0316826001600160a01b0316847f2f8788117e7eff1d82e926ec794901d17c78024a50270940304540a733656f0d60405160405180910390a4506001610136565b505f5b92915050565b5f6020828403121561014c575f5ffd5b81516001600160a01b0381168114610162575f5ffd5b9392505050565b612445806101765f395ff3fe608060405234801561000f575f5ffd5b506004361061024a575f3560e01c806382492c3b11610140578063c28fb278116100bf578063d9dd24c511610084578063d9dd24c514610590578063de139921146105a5578063e744d789146105b8578063ef2ed1a4146105cb578063f0eb5e54146105f6578063fc0c546a14610621575f5ffd5b8063c28fb2781461052f578063d547741f1461054f578063d57fe1b214610562578063d589cc9814610575578063d7e64c0014610588575f5ffd5b80639f63ea98116101055780639f63ea98146104dc578063a217fddf146104ef578063a8d29d1d146104f6578063b9209e3314610509578063b93d28eb1461051c575f5ffd5b806382492c3b1461048957806382aefa241461049a5780638456cb59146104ae5780638e098ca1146104b657806391d14854146104c9575f5ffd5b80633f4ba83a116101cc578063653dc9f111610191578063653dc9f1146103cb578063670af6a9146103de5780637bad2105146103f15780637c5cf724146104295780637e42683b1461044a575f5ffd5b80633f4ba83a14610350578063454a03e0146103585780635bb7dc8a1461036b5780635c975abb146103935780635dbe47e81461039e575f5ffd5b806326d941ae1161021257806326d941ae146102f35780632f2ff15d1461030657806336568abe146103195780633b239a7f1461032c5780633c8d19051461033f575f5ffd5b806301ffc9a71461024e5780630cd22bf714610276578063144fa6d71461028b5780631eb5bba51461029e578063248a9ca3146102c3575b5f5ffd5b61026161025c366004611ebe565b610634565b60405190151581526020015b60405180910390f35b610289610284366004611f26565b61066a565b005b610289610299366004611f7e565b6108dc565b6009546001600160a01b03165b6040516001600160a01b03909116815260200161026d565b6102e56102d1366004611f97565b5f9081526020819052604090206001015490565b60405190815260200161026d565b610289610301366004611f7e565b610967565b610289610314366004611fae565b6109e4565b610289610327366004611fae565b610a0e565b61028961033a366004611fd8565b610a46565b6007546001600160a01b03166102ab565b610289610b3a565b610289610366366004612000565b610b4f565b6102e5610379366004611f7e565b6001600160a01b03165f9081526005602052604090205490565b60015460ff16610261565b6102616103ac366004611f7e565b6001600160a01b039081165f9081526002602052604090205416151590565b6102896103d9366004612088565b610d6d565b6102896103ec366004611f7e565b611067565b61041c6103ff366004611f7e565b6001600160a01b03165f9081526004602052604090205460ff1690565b60405161026d9190612157565b61043c610437366004611f7e565b6110e4565b60405161026d92919061216a565b610476610458366004611f7e565b6001600160a01b03165f9081526003602052604090205461ffff1690565b60405161ffff909116815260200161026d565b6008546001600160a01b03166102ab565b6102e55f5160206123d05f395f51905f5281565b61028961116b565b6102896104c4366004612190565b61117d565b6102616104d7366004611fae565b6112c7565b6102896104ea3660046121b8565b6112ef565b6102e55f81565b610289610504366004611f7e565b61145e565b610261610517366004611f7e565b611615565b61028961052a366004611f7e565b611687565b61054261053d366004611f7e565b61182d565b60405161026d9190612207565b61028961055d366004611fae565b611896565b610289610570366004612249565b6118ba565b610289610583366004612271565b61198b565b6006546102e5565b610598611a74565b60405161026d9190612299565b6102896105b33660046121b8565b611ad4565b6102896105c6366004611f7e565b611bb8565b6102616105d9366004611f7e565b6001600160a01b03165f908152600c602052604090205460ff1690565b6102ab610604366004611f7e565b6001600160a01b039081165f908152600260205260409020541690565b600a546102ab906001600160a01b031681565b5f6001600160e01b03198216637965db0b60e01b148061066457506301ffc9a760e01b6001600160e01b03198316145b92915050565b5f5160206123d05f395f51905f5261068181611c35565b610689611c3f565b856001600160a01b0381166106b157604051630f2f0f2160e41b815260040160405180910390fd5b856001600160a01b0381166106d957604051630f2f0f2160e41b815260040160405180910390fd5b86806001600160a01b03163b5f036107145760405163a881615b60e01b81526001600160a01b03821660048201526024015b60405180910390fd5b8661ffff8116158061072b57506103e78161ffff16115b1561074f5760405163401f594f60e01b815261ffff8216600482015260240161070b565b6001600160a01b038a81165f9081526002602052604090205416156107925760405163c5a1e20160e01b81526001600160a01b038b16600482015260240161070b565b4286116107bd576040516351f6abb960e01b81526001600160a01b038b16600482015260240161070b565b6001600160a01b038a81165f90815260026020908152604080832080546001600160a01b031916948e16949094179093556003808252838320805461ffff191661ffff8e1617905560049091529190208054899260ff1990911690600190849081111561082c5761082c612127565b02179055506001600160a01b038a165f9081526005602052604081208790556006805491610859836122ed565b9190505550886001600160a01b03168a6001600160a01b03167f6ae73635c50d24a45af6fbd5e016ac4bed179addbc8bf24e04ff0fcc6d33af1960405160405180910390a38660038111156108b0576108b0612127565b6040516001600160a01b038c16905f5160206123f05f395f51905f52905f90a350505050505050505050565b5f6108e681611c35565b816001600160a01b03811661090e57604051630f2f0f2160e41b815260040160405180910390fd5b826001600160a01b03163b5f036109435760405163a881615b60e01b81526001600160a01b038416600482015260240161070b565b5050600a80546001600160a01b0319166001600160a01b0392909216919091179055565b5f61097181611c35565b816001600160a01b03811661099957604051630f2f0f2160e41b815260040160405180910390fd5b600780546001600160a01b0319166001600160a01b0385169081179091556040517f9cc094e0c53d8a746843eb119f7234807f5a6ea8b7a01806fb2cc4130ce1a435905f90a2505050565b5f828152602081905260409020600101546109fe81611c35565b610a088383611c65565b50505050565b6001600160a01b0381163314610a375760405163334bd91960e11b815260040160405180910390fd5b610a418282611cf4565b505050565b5f5160206123d05f395f51905f52610a5d81611c35565b610a65611c3f565b8161ffff81161580610a7c57506103e78161ffff16115b15610aa05760405163401f594f60e01b815261ffff8216600482015260240161070b565b6001600160a01b038481165f9081526002602052604090205416610ae257604051637afe31c160e11b81526001600160a01b038516600482015260240161070b565b6001600160a01b0384165f81815260036020526040808220805461ffff191661ffff881690811790915590519092917f04ed3b726495c2dca1ff1215d9ca54e1a4030abb5e82b0f6ce55702416cee85391a350505050565b5f610b4481611c35565b610b4c611d5d565b50565b5f5160206123d05f395f51905f52610b6681611c35565b610b6e611c3f565b836001600160a01b038116610b9657604051630f2f0f2160e41b815260040160405180910390fd5b836001600160a01b038116610bbe57604051630f2f0f2160e41b815260040160405180910390fd5b84806001600160a01b03163b5f03610bf45760405163a881615b60e01b81526001600160a01b038216600482015260240161070b565b8461ffff81161580610c0b57506103e78161ffff16115b15610c2f5760405163401f594f60e01b815261ffff8216600482015260240161070b565b6001600160a01b038881165f908152600260205260409020541615610c725760405163c5a1e20160e01b81526001600160a01b038916600482015260240161070b565b6001600160a01b038881165f90815260026020908152604080832080546001600160a01b031916948c169490941790935560038152828220805461ffff191661ffff8b161790556004905220805460ff19169055610cd4426301e13380612305565b6001600160a01b0389165f908152600560205260408120919091556006805491610cfd836122ed565b9190505550866001600160a01b0316886001600160a01b03167f6ae73635c50d24a45af6fbd5e016ac4bed179addbc8bf24e04ff0fcc6d33af1960405160405180910390a35f6040516001600160a01b038a16905f5160206123f05f395f51905f52905f90a35050505050505050565b5f5160206123d05f395f51905f52610d8481611c35565b610d8c611c3f565b85801580610d9a5750808514155b80610da55750808314155b15610dc357604051638fecd26960e01b815260040160405180910390fd5b60c8811115610de857604051636ace3f1560e01b81526004810182905260240161070b565b5f5b8181101561105c575f898983818110610e0557610e05612318565b9050602002016020810190610e1a9190611f7e565b90505f888884818110610e2f57610e2f612318565b9050602002016020810190610e449190611f7e565b90505f878785818110610e5957610e59612318565b9050602002016020810190610e6e919061232c565b90506001600160a01b0383161580610e8d57506001600160a01b038216155b15610eab57604051630f2f0f2160e41b815260040160405180910390fd5b816001600160a01b03163b5f03610ee05760405163a881615b60e01b81526001600160a01b038316600482015260240161070b565b61ffff81161580610ef657506103e78161ffff16115b15610f1a5760405163401f594f60e01b815261ffff8216600482015260240161070b565b6001600160a01b038381165f908152600260205260409020541615610f5d5760405163c5a1e20160e01b81526001600160a01b038416600482015260240161070b565b6001600160a01b038381165f90815260026020908152604080832080546001600160a01b0319169487169490941790935560038152828220805461ffff191661ffff86161790556004905220805460ff19169055610fbf426301e13380612305565b6001600160a01b0384165f908152600560205260408120919091556006805491610fe8836122ed565b9190505550816001600160a01b0316836001600160a01b03167f6ae73635c50d24a45af6fbd5e016ac4bed179addbc8bf24e04ff0fcc6d33af1960405160405180910390a35f6040516001600160a01b038516905f5160206123f05f395f51905f52905f90a3505050806001019050610dea565b505050505050505050565b5f61107181611c35565b816001600160a01b03811661109957604051630f2f0f2160e41b815260040160405180910390fd5b600880546001600160a01b0319166001600160a01b0385169081179091556040517f7170bf15b246e880b2369cd7c67d057760d8a35149e8c64dde91efa22bcc76d0905f90a2505050565b6001600160a01b038082165f908152600260209081526040808320546004909252822054919260ff90921691168061111e575f9250611165565b806001600160a01b03163b5f036111385760039250611165565b6001600160a01b0384165f908152600560205260409020544211156111605760029250611165565b600192505b50915091565b5f61117581611c35565b610b4c611daf565b5f5160206123d05f395f51905f5261119481611c35565b61119c611c3f565b826001600160a01b0381166111c457604051630f2f0f2160e41b815260040160405180910390fd5b826001600160a01b0381166111ec57604051630f2f0f2160e41b815260040160405180910390fd5b83806001600160a01b03163b5f036112225760405163a881615b60e01b81526001600160a01b038216600482015260240161070b565b6001600160a01b038087165f90815260026020526040902054168061126557604051637afe31c160e11b81526001600160a01b038816600482015260240161070b565b6001600160a01b038781165f8181526002602052604080822080546001600160a01b0319168b861690811790915590519093851692917f9e8fe855fb89edef1315cb1d05f3b5e083450023e05286452fe6bee9179aca8c91a450505050505050565b5f918252602082815260408084206001600160a01b0393909316845291905290205460ff1690565b5f6112f981611c35565b836001600160a01b03811661132157604051630f2f0f2160e41b815260040160405180910390fd5b6001600160a01b0385165f908152600c602052604090205460ff16156113655760405163c5a1e20160e01b81526001600160a01b038616600482015260240161070b565b5f83900361138657604051638fecd26960e01b815260040160405180910390fd5b600b80546001600160a01b0387165f818152600e6020908152604080832085905560018086019096557f0175b7a638427703f0dbe7bb9bbf987a2551717b34e79f33b5b1008d1fa01db990940180546001600160a01b031916909317909255600c8252828120805460ff1916909417909355600d90529020611409908585611e4a565b50336001600160a01b0316856001600160a01b03167fc174c258b74b1b9eb61f84f2f690308d39c022cc0d8b61361cb43edae7c0fbaf868660405161144f929190612345565b60405180910390a35050505050565b5f5160206123d05f395f51905f5261147581611c35565b61147d611c3f565b6001600160a01b038083165f9081526002602052604090205416806114c057604051637afe31c160e11b81526001600160a01b038416600482015260240161070b565b600a546001600160a01b0316158015906115435750600a546040516370a0823160e01b81526001600160a01b0385811660048301525f9216906370a0823190602401602060405180830381865afa15801561151d573d5f5f3e3d5ffd5b505050506040513d601f19601f82011682018060405250810190611541919061237c565b115b1561156c57604051636df0cea360e11b81526001600160a01b038416600482015260240161070b565b6001600160a01b0383165f90815260026020908152604080832080546001600160a01b031916905560038252808320805461ffff1916905560048252808320805460ff191690556005909152812081905560068054916115cb83612393565b9190505550806001600160a01b0316836001600160a01b03167f59d6590e225b81befe259af056324092801080acbb7feab310eb34678871f32760405160405180910390a3505050565b6001600160a01b038082165f908152600260205260408120549091168061163e57505f92915050565b806001600160a01b03163b5f0361165757505f92915050565b6001600160a01b0383165f9081526005602052604090205442111561167e57505f92915050565b50600192915050565b5f61169181611c35565b6001600160a01b0382165f908152600c602052604090205460ff166116d4576040516373f18e8960e11b81526001600160a01b038316600482015260240161070b565b6001600160a01b0382165f908152600e6020526040812054600b549091906116fe906001906123a8565b9050808214611783575f600b828154811061171b5761171b612318565b5f91825260209091200154600b80546001600160a01b03909216925082918590811061174957611749612318565b5f91825260208083209190910180546001600160a01b0319166001600160a01b03948516179055929091168152600e909152604090208290555b600b805480611794576117946123bb565b5f828152602080822083015f1990810180546001600160a01b03191690559092019092556001600160a01b0386168252600c81526040808320805460ff19169055600d90915281206117e591611e93565b6001600160a01b0384165f818152600e6020526040808220829055513392917ff7c835af57fa00668263633370297e8186b0e3f75d50c54cad2e941512926a9091a350505050565b6001600160a01b0381165f908152600d602090815260409182902080548351818402810184019094528084526060939283018282801561188a57602002820191905f5260205f20905b815481526020019060010190808311611876575b50505050509050919050565b5f828152602081905260409020600101546118b081611c35565b610a088383611cf4565b5f5160206123d05f395f51905f526118d181611c35565b6118d9611c3f565b6001600160a01b038381165f908152600260205260409020541661191b57604051637afe31c160e11b81526001600160a01b038416600482015260240161070b565b6001600160a01b0383165f908152600460205260409020805483919060ff1916600183600381111561194f5761194f612127565b021790555081600381111561196657611966612127565b6040516001600160a01b038516905f5160206123f05f395f51905f52905f90a3505050565b5f5160206123d05f395f51905f526119a281611c35565b6119aa611c3f565b6001600160a01b038381165f90815260026020526040902054166119ec57604051637afe31c160e11b81526001600160a01b038416600482015260240161070b565b6119f94262015180612305565b8211611a1b5760405163839f254f60e01b81526004810183905260240161070b565b6001600160a01b0383165f8181526005602052604090819020849055517fef0a4f71f0e2f807a8a4d5afc8a54377baeea2cfe71dee87ee1e05245cabbb1590611a679085815260200190565b60405180910390a2505050565b6060600b805480602002602001604051908101604052809291908181526020018280548015611aca57602002820191905f5260205f20905b81546001600160a01b03168152600190910190602001808311611aac575b5050505050905090565b5f611ade81611c35565b6001600160a01b0384165f908152600c602052604090205460ff16611b21576040516373f18e8960e11b81526001600160a01b038516600482015260240161070b565b5f829003611b4257604051638fecd26960e01b815260040160405180910390fd5b6001600160a01b0384165f908152600d60205260409020611b64908484611e4a565b50336001600160a01b0316846001600160a01b03167f35ed3e385209848bf76c6b7730b7d4f372be15fab70ccd650f6941bda4d1447a8585604051611baa929190612345565b60405180910390a350505050565b5f611bc281611c35565b816001600160a01b038116611bea57604051630f2f0f2160e41b815260040160405180910390fd5b600980546001600160a01b0319166001600160a01b0385169081179091556040517f1b98cb79e6f73020175fe87333f1b91ad6a881519c0afe30340c2599b2b4bde0905f90a2505050565b610b4c8133611dea565b60015460ff1615611c635760405163d93c066560e01b815260040160405180910390fd5b565b5f611c7083836112c7565b611ced575f838152602081815260408083206001600160a01b03861684529091529020805460ff19166001179055611ca53390565b6001600160a01b0316826001600160a01b0316847f2f8788117e7eff1d82e926ec794901d17c78024a50270940304540a733656f0d60405160405180910390a4506001610664565b505f610664565b5f611cff83836112c7565b15611ced575f838152602081815260408083206001600160a01b0386168085529252808320805460ff1916905551339286917ff6391f5c32d9c69d2a47ea670b442974b53935d1edc7fd64eb21e047a839171b9190a4506001610664565b611d65611e27565b6001805460ff191690557f5db9ee0a495bf2e6ff9c91a7834c1ba4fdd244a5e8aa4e537bd38aeae4b073aa335b6040516001600160a01b03909116815260200160405180910390a1565b611db7611c3f565b6001805460ff1916811790557f62e78cea01bee320cd4e420270b5ea74000d11b0c9f74754ebdbfc544b05a25833611d92565b611df482826112c7565b611e235760405163e2517d3f60e01b81526001600160a01b03821660048201526024810183905260440161070b565b5050565b60015460ff16611c6357604051638dfc202b60e01b815260040160405180910390fd5b828054828255905f5260205f20908101928215611e83579160200282015b82811115611e83578235825591602001919060010190611e68565b50611e8f929150611eaa565b5090565b5080545f8255905f5260205f2090810190610b4c91905b5b80821115611e8f575f8155600101611eab565b5f60208284031215611ece575f5ffd5b81356001600160e01b031981168114611ee5575f5ffd5b9392505050565b80356001600160a01b0381168114611f02575f5ffd5b919050565b803561ffff81168114611f02575f5ffd5b803560048110611f02575f5ffd5b5f5f5f5f5f60a08688031215611f3a575f5ffd5b611f4386611eec565b9450611f5160208701611eec565b9350611f5f60408701611f07565b9250611f6d60608701611f18565b949793965091946080013592915050565b5f60208284031215611f8e575f5ffd5b611ee582611eec565b5f60208284031215611fa7575f5ffd5b5035919050565b5f5f60408385031215611fbf575f5ffd5b82359150611fcf60208401611eec565b90509250929050565b5f5f60408385031215611fe9575f5ffd5b611ff283611eec565b9150611fcf60208401611f07565b5f5f5f60608486031215612012575f5ffd5b61201b84611eec565b925061202960208501611eec565b915061203760408501611f07565b90509250925092565b5f5f83601f840112612050575f5ffd5b50813567ffffffffffffffff811115612067575f5ffd5b6020830191508360208260051b8501011115612081575f5ffd5b9250929050565b5f5f5f5f5f5f6060878903121561209d575f5ffd5b863567ffffffffffffffff8111156120b3575f5ffd5b6120bf89828a01612040565b909750955050602087013567ffffffffffffffff8111156120de575f5ffd5b6120ea89828a01612040565b909550935050604087013567ffffffffffffffff811115612109575f5ffd5b61211589828a01612040565b979a9699509497509295939492505050565b634e487b7160e01b5f52602160045260245ffd5b60048110610b4c57634e487b7160e01b5f52602160045260245ffd5b602081016121648361213b565b91905290565b604081016121778461213b565b8382526121838361213b565b8260208301529392505050565b5f5f604083850312156121a1575f5ffd5b6121aa83611eec565b9150611fcf60208401611eec565b5f5f5f604084860312156121ca575f5ffd5b6121d384611eec565b9250602084013567ffffffffffffffff8111156121ee575f5ffd5b6121fa86828701612040565b9497909650939450505050565b602080825282518282018190525f918401906040840190835b8181101561223e578351835260209384019390920191600101612220565b509095945050505050565b5f5f6040838503121561225a575f5ffd5b61226383611eec565b9150611fcf60208401611f18565b5f5f60408385031215612282575f5ffd5b61228b83611eec565b946020939093013593505050565b602080825282518282018190525f918401906040840190835b8181101561223e5783516001600160a01b03168352602093840193909201916001016122b2565b634e487b7160e01b5f52601160045260245ffd5b5f600182016122fe576122fe6122d9565b5060010190565b80820180821115610664576106646122d9565b634e487b7160e01b5f52603260045260245ffd5b5f6020828403121561233c575f5ffd5b611ee582611f07565b602080825281018290525f6001600160fb1b03831115612363575f5ffd5b8260051b80856040850137919091016040019392505050565b5f6020828403121561238c575f5ffd5b5051919050565b5f816123a1576123a16122d9565b505f190190565b81810381811115610664576106646122d9565b634e487b7160e01b5f52603160045260245ffdfe114e74f6ea3bd819998f78687bfcb11b140da08e9b7d222fa9c1f1ba1f2aa122ec9624dd7fe6a1e9ae6c2b4e7ac069d59a70d625d24eed5ccecb86d1bd867d3da2646970667358221220aace4e67f4fe6a8ac2255830531e6792b5a63c8188a755a13701f93e959b962564736f6c634300081c0033","linkReferences":{}},"methodIdentifiers":{"DEFAULT_ADMIN_ROLE()":"a217fddf","ISSUER_ROLE()":"82aefa24","addTrustedIssuer(address,uint256[])":"9f63ea98","batchRegisterIdentity(address[],address[],uint16[])":"653dc9f1","contains(address)":"5dbe47e8","deleteIdentity(address)":"a8d29d1d","getClaimTopicsRegistry()":"82492c3b","getIdentityRegistryStorage()":"3c8d1905","getRoleAdmin(bytes32)":"248a9ca3","getTrustedIssuerClaimTopics(address)":"c28fb278","getTrustedIssuers()":"d9dd24c5","getTrustedIssuersRegistry()":"1eb5bba5","grantRole(bytes32,address)":"2f2ff15d","hasRole(bytes32,address)":"91d14854","identity(address)":"f0eb5e54","investorCount()":"d7e64c00","investorCountry(address)":"7e42683b","investorType(address)":"7bad2105","isTrustedIssuer(address)":"ef2ed1a4","isVerified(address)":"b9209e33","isVerifiedWithDetails(address)":"7c5cf724","kycExpiry(address)":"5bb7dc8a","pause()":"8456cb59","paused()":"5c975abb","registerIdentity(address,address,uint16)":"454a03e0","registerIdentity(address,address,uint16,uint8,uint256)":"0cd22bf7","removeTrustedIssuer(address)":"b93d28eb","renounceRole(bytes32,address)":"36568abe","revokeRole(bytes32,address)":"d547741f","setClaimTopicsRegistry(address)":"670af6a9","setIdentityRegistryStorage(address)":"26d941ae","setToken(address)":"144fa6d7","setTrustedIssuersRegistry(address)":"e744d789","supportsInterface(bytes4)":"01ffc9a7","token()":"fc0c546a","unpause()":"3f4ba83a","updateCountry(address,uint16)":"3b239a7f","updateIdentity(address,address)":"8e098ca1","updateInvestorType(address,uint8)":"d57fe1b2","updateKYCExpiry(address,uint256)":"d589cc98","updateTrustedIssuerClaimTopics(address,uint256[])":"de139921"},"id":51}